:020000040800F2
:100000009804002045010008250C0008470B000853
:10001000210C00089D010008F114000800000000F8
:10002000000000000000000000000000F10E0008C9
:1000300099080008000000005B0100085D0100084D
:100040005F0100085F0100085F0100085F01000810
:100050005F0100085F0100085F0100085F01000800
:100060005F0100085F0100085F0100085F010008F0
:100070005F0100085F0100085F0100085F010008E0
:100080005F0100085F0100085F0100085F010008D0
:10009000791300085F0100085F0100085F01000894
:1000A0005F0100085F0100085F0100085F010008B0
:1000B0005F0100085F0100085F0100085F010008A0
:1000C0005F0100085F0100085F0100085F01000890
:1000D0005F010008191100085F0100085F010008B6
:1000E0005F0100085F0100085F0100085F01000870
:1000F0005F0100085F0100085F0100085F01000860
:100100005F0100085F0100085F0100085F0100084F
:100110005F0100085F0100085F0100085F0100083F
:100120005F0100085F0100085F0100085F0100082F
:10013000DFF80CD000F020F8004800472D1600082A
:10014000980400200648804706480047FEE7FEE77F
:10015000FEE7FEE7FEE7FEE7FEE7FEE7FEE7FEE777
:10016000DD0F000831010008421C10F8011B0029B6
:10017000FBD1801A70470000064C074D06E0E0688E
:1001800040F0010394E8070098471034AC42F6D3DE
:10019000FFF7D2FFAC160008CC16000800BFFEE740
:1001A00010B500F0D9F800F0BFF900F091F9002285
:1001B0001146104600F0A4F8142000F034FD10BDE4
:1001C00010B504460B48844209D10121480600F0CD
:1001D00087FD00214FF0007000F082FD08E0012152
:1001E000880600F07DFD00214FF0806000F078FD72
:1001F00010BD00000064004010B50021837A012288
:1002000002FA03F13D4A126842F001023B4B1A60C8
:100210003A4A1C3212688A43384B1C331A60027BFC
:10022000CAB9364A0C3212688A43344B0C331A600E
:100230004288C38842EA0343304A4032847A42F813
:1002400034300288838842EA03432C4A4032847A5D
:1002500002EBC4025360027B012A19D1274A0C32F7
:1002600012680A43254B0C331A604288038842EA1D
:100270000343224A4032847A42F83430C288838869
:1002800042EA03431D4A4032847A02EBC4025360BF
:10029000C27A3AB9194A121D12688A43174B1B1DBC
:1002A0001A6006E0154A121D12680A43134B1B1D03
:1002B0001A60028932B9114A143212688A430F4B0C
:1002C00014331A600289012A06D10C4A14321268CA
:1002D0000A430A4B14331A60427B012A06D1074AAB
:1002E0001C3212680A43054B1C331A60034A126819
:1002F00022F00102014B1A6010BD000000660040B0
:100300007FB504460D46164600208DF80A008DF88C
:100310000B0001208DF80C00C4F34F30ADF8000045
:10032000042000EBC40080B2ADF80200ADF8045028
:10033000ADF806600020ADF8080001208DF80D0032
:100340006846FFF759FF01220221024800F02CF80D
:100350007FBD00000064004008B50121052000F0C9
:10036000CFFC0121480600F0ABFC4FF40060ADF873
:10037000000048208DF8030003208DF80200694634
:10038000084800F0FFFA4FF48050ADF80000182044
:100390008DF8030003208DF802006946014800F043
:1003A000F1FA08BD000801401AB143690B434361EB
:1003B00002E043698B434361704730B50246002039
:1003C0000023146824F002041460146844F001044B
:1003D000146000E05B1C546804F001041CB94FF683
:1003E000FF74A342F6D1546804F001040CB9002054
:1003F0006CE08C79012C04D1146844F08004146002
:1004000003E0146824F080041460CC79012C04D13A
:10041000146844F04004146003E0146824F04004BD
:1004200014600C7A012C04D1146844F02004146088
:1004300003E0146824F0200414604C7A012C04D1E9
:10044000146844F01004146003E0146824F01004ED
:1004500014608C7A012C04D1146844F008041460F0
:1004600003E0146824F008041460CC7A012C04D151
:10047000146844F00404146003E0146824F00404D5
:1004800014608C78A407CD7844EA05640D7944EAB9
:1004900005444D7944EA05540D886D1E2C43D46102
:1004A000146824F001041460002300E05B1C54680D
:1004B00004F001041CB14FF6FF74A342F6D1546856
:1004C00004F001040CB1002000E0012030BD000068
:1004D0000EB51448FFF774FE684600F0E9F80020F6
:1004E0008DF8060001208DF807008DF80800002027
:1004F0008DF809008DF80A008DF80B008DF80200C8
:1005000001208DF8030005208DF8040002208DF8ED
:1005100005000420ADF8000069460248FFF74DFFD2
:100520000EBD00000064004008B54FF4C06000F04C
:10053000BDFB14208DF8000000208DF801008DF81F
:10054000020001208DF80300684600F077FB08BD2B
:1005500010B500F5D87303EB01131B6803F0040317
:100560001372137A53B900F5D87303EB01131B68A8
:1005700040F2FF7404EA5353136009E000F5D873A6
:1005800003EB01131B686FF0604404EAD30353606C
:1005900000F5D87303EB01131B6803F002035372D9
:1005A00000F5D87303EB01135B6803F00F0393723C
:1005B00000F5D87303EB01135B681B0AD37400F5D5
:1005C000D87303EB01139B68D37200F5D87303EB68
:1005D00001139B681C0A147300F5D87303EB011315
:1005E0009B681C0C547300F5D87303EB01139B68D4
:1005F0001B0E937300F5D87303EB0113DB68D37301
:1006000000F5D87303EB0113DB681C0A147400F5C2
:10061000D87303EB0113DB681C0C547400F5D8731A
:1006200003EB0113DB681B0E937421B9C36843F01D
:100630002003C36003E0036943F02003036110BD9E
:100640007CB505460C460020019000901648456098
:10065000042015490872002048722046FFF784FDE7
:100660001149887207E014F8012B0198411C01918F
:100670000D490B310A5420780028F4D10A490B485F
:1006800000F026F800900020019002E00198401C44
:1006900001909DF80010054800F0AEF8012802D046
:1006A0000198FF28F2D17CBD6C000020006400405E
:1006B00000218171C171017241728172C1728170B8
:1006C000C170032101710221417101210180704734
:1006D00010B502460020936803F08063B3F1806F89
:1006E00000D110E0936803F00063B3F1006F01D113
:1006F000012008E0936803F08053B3F1805F01D1DB
:10070000022000E00420042874D002F5C07303EB3B
:1007100000131B6803F0010402F5C07303EB001320
:100720001C600B7A7BB94B7A0C8843EA445302F580
:10073000C07404EB00142468234302F5C07404EB76
:100740000014236010E00B7A4C6843EAC4034C7A2F
:10075000234302F5C07404EB00142468234302F51C
:10076000C07404EB001423608B7A03F00F038B72C8
:1007700002F5C07303EB00135B6823F00F0402F56E
:10078000C07303EB00135C6002F5C07303EB00134E
:100790005B688C7A234302F5C07404EB0014636039
:1007A0008B7B1C064B7B44EA03440B7B44EA03230C
:1007B000CC7A234302F5C07404EB0014A3608B7C55
:1007C0001C064B7C44EA03440B7C44EA0323CC7BA9
:1007D000234302F5C07404EB0014E36002F5C07318
:1007E00003EB00131B6843F0010402F5C07303EB35
:1007F00000131C6010BD000010B50246002321B19B
:10080000012907D002290FD109E090681D4C00EAA8
:1008100004030BE090681C4C00EA040306E09068B7
:100820001A4C00EA040301E0002300BF00BF184C8B
:10083000181BA34216D007DC83B16FF08060184408
:1008400070B1022818D111E0B0F5007F10D0114C22
:10085000204448B1B0F5003F0ED10BE002230DE07B
:1008600000230BE0002309E0002307E0012305E05B
:10087000012303E0012301E0002300BF00BFD8B241
:1008800010BD000003000004000300080000031076
:10089000000100080001FFF77047000001461B4AF5
:1008A00012681B4BB2FBF3F21A4B1A701A461278FD
:1008B00002EB4203C3EBC2124FF6FF7303EAC2021C
:1008C000154B1A801A4612884A434FF0E0235A61AA
:1008D00000229A611A46126942F001021A6100BFB1
:1008E0004FF0E022106900F001021AB100F48032EA
:1008F000002AF5D04FF0E022126922F001024FF0F9
:10090000E0231A6100229A6170470000180000205D
:1009100000127A00140000201600002008B5012102
:10092000042000F0EDF94FF48870ADF800001020BD
:100930008DF8030003208DF8020069460F4800F08F
:1009400021F84FF488710D4800F0FBF801210820D0
:1009500000F0D6F94FF44070ADF8000010208DF88B
:10096000030003208DF802006946054800F00AF8EC
:100970004FF44071024800F0E4F808BD000801405F
:10098000000C01402DE9F041024600250026002020
:1009900000230024002791F803C00CF00F0591F804
:1009A00003C00CF0100CBCF1000F03D091F802C092
:1009B0004CEA050591F800C0BCF1000F31D0146875
:1009C00000202BE04FF0010C0CFA00F3B1F800C04E
:1009D0000CEA03069E4220D183004FF00F0C0CFA64
:1009E00003F7BC4305FA03FC4CEA040491F803C086
:1009F000BCF1280F06D14FF0010C0CFA00FCC2F834
:100A000014C00AE091F803C0BCF1480F05D14FF0C3
:100A1000010C0CFA00FCC2F810C0401C0828D1D30D
:100A20001460B1F800C0BCF1FF0F34DD5468002041
:100A30002EE000F1080C4FF0010808FA0CF3B1F8B1
:100A400000C00CEA03069E4221D183004FF00F0C38
:100A50000CFA03F7BC4305FA03FC4CEA040491F8D2
:100A600003C0BCF1280F05D100F1080C08FA0CF8FE
:100A7000C2F8148091F803C0BCF1480F07D100F10F
:100A8000080C4FF0010808FA0CF8C2F81080401C5E
:100A90000828CED35460BDE8F0810000F0B50A46C6
:100AA000002300240021002500F00046B6F1004F8D
:100AB00002D11D4EF16901E01B4E7168C0F3034580
:100AC00083B200F44016B6F5401F08D121F07061E2
:100AD000154E766826F07066134F7E6012E000F4C3
:100AE0008016B6F5801F06D1032606FA05F4A14349
:100AF00041F0706106E0460D360103FA06F6B14397
:100B000041F0706122B1460D360103FA06F6314319
:100B100000F00046B6F1004F02D1034EF16101E052
:100B2000014E7160F0BD000000000140024600204F
:100B3000D3680B400BB1012000E0002070474161F9
:100B400070470161704700BFFEE7000008B5012152
:100B5000082000F0D5F84FF40060ADF80000102038
:100B60008DF8030003208DF8020069460C48FFF75A
:100B700009FF4FF400610A48FFF7E1FF4FF480607E
:100B8000ADF8000048208DF8030003208DF8020026
:100B900069460348FFF7F6FE00F02CF908BD000097
:100BA000000C014010B54FF400410B48FFF7BEFFA9
:100BB000C0F10100C0B228B14FF400410648FFF770
:100BC000C0FF04E04FF400410348FFF7B8FF4FF4C3
:100BD000FA70FFF763FE10BD0008014008B501215F
:100BE000052000F08DF801210B48FFF757FF4FF467
:100BF0000040ADF8000010208DF8030003208DF8B0
:100C0000020069460548FFF7BDFE4FF40041034866
:100C1000FFF797FF08BD0000000230000008014008
:100C200000BFFEE7704700F01F020121914042091A
:100C3000920002F1E022C2F80011704770B5002165
:100C400000230F22C47804B3154C246804F4E06434
:100C5000C4F5E064210AC1F10403CA40447804FAEF
:100C600003F184781440214309010E4C0678A15504
:100C7000047804F01F050124AC4005786D11AD0027
:100C800005F1E025C5F8004109E0047804F01F05EE
:100C90000124AC40044D0678761145F8264070BD1D
:100CA0000CED00E000E400E080E100E002490143D7
:100CB000024A1160704700000000FA050CED00E0E8
:100CC00029B1064AD2690243044BDA6104E0034ABF
:100CD000D2698243014BDA61704700000010024084
:100CE00029B1064A12690243044B1A6104E0034A1F
:100CF00012698243014B1A617047000000100240E4
:100D000029B1064A92690243044B9A6104E0034AFE
:100D100092698243014B9A617047000000100240C3
:100D200030B500210022002400232D4D6D6805F010
:100D30000C0121B1042905D0082923D105E0294D52
:100D4000056022E0274D05601FE0254D6D6805F424
:100D50007012234D6D6805F48034022505EB924234
:100D60001CB9214D554305600BE01D4D6D6805F420
:100D700000351DB11C4D5543056002E0194D55432A
:100D8000056002E0174D056000BF00BF144D6D689F
:100D900005F0F0010909154D6B5C0568DD40456003
:100DA0000F4D6D6805F4E061090A104D6B5C4568F4
:100DB000DD4085600A4D6D6805F46051C90A0B4D30
:100DC0006B5C4568DD40C560054D6D6805F44041CC
:100DD000890B074D6B5CC568B5FBF3F5056130BD4C
:100DE0000010024000127A0000093D002C00002093
:100DF0003C00002000B587B001210820FFF780FFEC
:100E000001218803FFF75CFF4FF46040ADF8040058
:100E100003208DF8060018208DF8070001A91D4851
:100E2000FFF7B0FD4FF48050ADF8040003208DF8BB
:100E3000060010208DF8070001A91648FFF7A2FD53
:100E40004FF480511348FFF77CFE0020ADF80800F6
:100E50004FF48270ADF80A000020ADF80C00ADF838
:100E60000E000120ADF810004002ADF8120038204D
:100E7000ADF814000020ADF816000720ADF81800FA
:100E800002A9054800F016F80121034800F006F811
:100E900007B000BD000C01400038004021B10288BD
:100EA00042F04002028004E002884FF6BF731A400D
:100EB0000280704710B50022028802F441520B886C
:100EC0004C8823438C882343CC8823430C892343B9
:100ED0004C8923438C892343CC8923431A430280C2
:100EE000838B4FF2FF74234083830B8A038210BDF0
:100EF000704710B500F002F810BD00000CB50020DE
:100F0000019000903348006840F480303149086017
:100F100000BF3048006800F4003000900198401C89
:100F20000190009818B90198B0F5A06FF1D1294847
:100F3000006800F4003010B10120009001E00020B2
:100F400000900098012843D12348006840F0100029
:100F5000214908600846006820F003000860084640
:100F6000006840F0020008601A484068194948606B
:100F70000846406848600846406840F48060486021
:100F80000846406820F47C1048600846406840F4F9
:100F9000E81048600846006840F08070086000BFB4
:100FA0000C48006800F000700028F9D0094840683B
:100FB00020F00300074948600846406840F00200FE
:100FC000486000BF0348406800F00C000828F9D1D1
:100FD0000CBD0000001002400020024010B5134874
:100FE000006840F001001149086008464068104957
:100FF00008400E494860084600680E4908400B4901
:1010000008600846006820F48020086008464068B0
:1010100020F4FE0048604FF41F008860FFF769FF6E
:101020004FF000600449086010BD0000001002404D
:101030000000FFF8FFFFF6FE08ED00E010B50446E3
:101040002146054800F093F900BF4021024800F016
:10105000C1F80028F9D010BD0038014010B586B0A5
:10106000044601210420FFF74BFE01218803FFF70E
:1010700047FE4FF40070ADF8140018208DF81700EB
:1010800003208DF8160005A92148FFF77BFC4FF4DB
:101090008060ADF8140004208DF8170005A91C48E5
:1010A000FFF770FC01940020ADF80800ADF80A00CD
:1010B000ADF80C00ADF810000C20ADF80E0001A941
:1010C000144800F0E3F8012240F22441114800F0F6
:1010D000B8F8012240F225510E4800F0B2F8012183
:1010E0000C4800F06BF84FF4E060FFF7DFFD2520BF
:1010F0008DF8000000208DF8010001208DF802001D
:101100008DF803006846FFF799FD06B010BD00009A
:10111000000801400038014010B500BF40F22551E1
:10112000104800F064F860B10E4800F01BF9C1B23D
:101130000D4802780078401C0B4B18700B48815406
:101140000FE040F22441074800F051F848B105484B
:101150000088C4B20348001D0088C4B201200449BD
:10116000087010BD0038014001000020440000203C
:101170000000002010B500240D480078012815D18A
:1011800000200B49087006E02146621CD4B2094ACF
:10119000505CFFF753FF084801780078401E064A6C
:1011A00010700029F0D100201146087010BD000019
:1011B00000000020440000200100002021B18289AD
:1011C00042F40052828104E082894DF6FF731A4096
:1011D0008281704702460020B1F5007F00D100BF38
:1011E00013880B400BB1012000E00020704770B560
:1011F0000246002400230025002040F66A16B14272
:1012000000D100BFC1F3421501F01F03012606FA09
:1012100003F3012D02D19689334006E0022D02D15D
:10122000168A334001E0968A33400C12012606FAF2
:1012300004F41688344013B10CB1012000E0002002
:1012400070BDF0B50346002400260025002040F6BE
:101250006A17B94200D100BF1846C1F3421401F029
:101260001F06012707FA06F5012C01D10C3004E016
:10127000022C01D1103000E014301AB107682F435E
:10128000076002E00768AF430760F0BD2DE9F04753
:1012900086B005460E460024A24600BFA1460027A0
:1012A000B08900B100BF2F462C8A4CF6FF70044075
:1012B000F08804432C82AC894EF6F3100440B088C9
:1012C00031890843718908430443AC81AC8A4FF6E5
:1012D000FF400440B0890443AC8201A8FFF720FD21
:1012E0001F48874202D1DDF810A001E0DDF80CA014
:1012F000A88900F4004040B10AEBCA0000EB0A10D4
:1013000031684900B0FBF1F807E00AEBCA0000EBD6
:101310000A1031688900B0FBF1F86420B8FBF0F0E6
:1013200004012009642101FB1089A88900F4004010
:1013300040B1322000EBC900B0FBF1F000F0070033
:10134000044308E0322000EB09106421B0FBF1F007
:1013500000F00F0004432C8106B0BDE8F0870000C8
:101360000038014001468888C0F308007047C1F387
:10137000080282807047000010B50024142001216B
:101380008140554A430942F8231000BF534A0021C7
:101390005348FFF7DDF85348007800284CD14F48F8
:1013A000C07A502816D100BF06E04C480B30005DD3
:1013B0004D490855601CC4B24848807AA042F4DC0C
:1013C00001204A4908700020464908701420FFF7A0
:1013D0002AFC7FE04148C07A55281FD100204349AC
:1013E000087000240BE03D480B30005D3E49085575
:1013F0003C480078401C3B490870601CC4B2374828
:10140000807AA042EFDC35494FF6FF7248681146FA
:10141000FEF776FF1420FFF706FC5BE0002033495F
:10142000087030490870002211461046FEF768FF28
:101430001420FFF7F8FB4DE02B480078552849D1E0
:1014400028480078002845D000240CE023480B30C1
:10145000015D244802780078401C224B1870224815
:101460008154601CC4B21D48807AA042EEDC1E4844
:1014700040781C49097888420ED101201B49087028
:10148000002018490870002211461046FEF738FF68
:101490001420FFF7C8FB1DE0134840781149097874
:1014A00088420ADD0D494FF6FF7248681146FEF783
:1014B00027FF1420FFF7B7FB0CE000200B49087052
:1014C00008490870002211461046FEF719FF142043
:1014D000FFF7A9FB10BD000080E100E080000020C4
:1014E000006400400300002058000020020000209B
:1014F00000BFFEE70FB4054B10B503A9044A0298DC
:1015000000F017F810BC5DF814FB00000916000885
:101510004000002002E008C8121F08C1002AFAD1CA
:1015200070477047002001E001C1121F002AFBD163
:1015300070472DE9F84F99469246884605460027A0
:1015400006E025280AD051464A4690476D1C7F1C6C
:1015500028780028F5D13846BDE8F88F002315F823
:10156000011F18462E2915D115F8011F04232A2919
:101570000DD06FF02F022978A1F13004092C09D881
:1015800000EB800002EB400008446D1CF3E758F8C4
:10159000040B6D1C2A78002ADDD0632A07D0732A39
:1015A0000FD0104651464A4690477F1C2AE018F853
:1015B000042B8DF8002000218DF801106E460121CA
:1015C00003E058F8046B4FF0FF315A074FF0000466
:1015D00001D409E0641C84420BDA8C42FADB325DF0
:1015E000002AF7D105E0641C8C42FCDB305D00284A
:1015F000F9D1274404E016F8010B51464A469047BA
:10160000641EF8D26D1CA3E770B504460D46E1B226
:101610000548FFF7ACFE00BF0348008800F08000DB
:101620000028F9D0204670BD00380140FFF7D6FAF7
:101630004FF4E130FFF712FDFEF7B2FDFFF786FA37
:101640006420FFF72BF94FF400610948FFF779FA9E
:10165000FFF764F907A0FFF74DFF11A141F2342015
:10166000FEF7EEFF03E0FFF79DFAFFF783FDFAE7D1
:10167000000C01403D3D3D3D3D3D3D3D3D3D3D3D41
:101680003D3DB2E2CAD4B3CCD0F2BFAACABCA3A13A
:101690003D3D3D3D3D3D3D3D3D3D3D3D3D3D0000F4
:1016A000313233343536373800000000CC160008AC
:1016B0000000002044000000141500081017000866
:1016C000440000205404000024150008000000001D
:1016D00000800000663B4B8B92F6E33F0000000069
:1016E0000000000000A24A0400000000000000000A
:1016F00001020304060708090000000001020304B8
:10170000010203040607080902040608000000009D
:0400000508000131BD
:00000001FF
