:020000040800F2
:10000000A008002045010008E11C00083B1C000876
:10001000DD1C000883070008012A0008000000001A
:100020000000000000000000000000005721000850
:10003000E1140008000000005B0100085D010008F9
:100040005F0100085F0100085F0100085F01000810
:100050005F0100085F0100085F0100085F01000800
:100060005F0100085F0100085F0100085F010008F0
:100070005F0100085F0100085F0100085F010008E0
:100080005F0100085F0100085F0100085F010008D0
:10009000B12800085F0100085F0100085F01000847
:1000A0005F0100085F0100085F0100085F010008B0
:1000B0005F0100085F0100085F0100085F010008A0
:1000C0005F0100085F0100085F0100085F01000890
:1000D0005F010008AD2300085F0100085F01000810
:1000E0005F0100085F0100085F0100085F01000870
:1000F0005F0100085F0100085F0100085F01000860
:100100005F0100085F0100085F0100085F0100084F
:100110005F0100085F0100085F0100085F0100083F
:100120005F0100085F0100085F0100085F0100082F
:10013000DFF80CD000F0A6FA00480047E9330008C9
:10014000A00800200648804706480047FEE7FEE773
:10015000FEE7FEE7FEE7FEE7FEE7FEE7FEE7FEE777
:1001600071220008310100082DE9FE4F804681EA26
:100170000300C00F0C46009021F0004123F0004521
:10018000B8EB0200A94105D24046214690461C46E4
:100190000B46024623F00040104347D0270DC7F31B
:1001A0000A00C3F30A510290401A019040286BDA0A
:1001B000C3F3130040F4801B0098924620B1002343
:1001C000D2EB030A63EB0B0B01985946C0F14002D6
:1001D000504600F0A9F906460D4650465946019A88
:1001E00000F0B1F910EB08006141002487EA1152D8
:1001F00084EAE7731A4340D0009A62B3019A012A55
:100200004FEA075215DC001B61EB02014FF0004280
:1002100002EA0752CDE90042001C41F58011324646
:100220002B4600F0B1F903B0BDE8F08F40462146FF
:10023000F9E7001B61EB0201001C41F58013001877
:100240005B412018A2F5001747EB030140EAD57087
:10025000B6196D4111E06D084FEA360645EAC075E2
:100260004FEA0752001B61EB0201001C41F58011AF
:1002700049084FEA30000019514132462B4603B07D
:10028000BDE8F04F00F071B9009801224000002352
:10029000D0EB020263EBE073009821464FEAE07472
:1002A000B8EB000061EB0401E9E783F000435BE792
:1002B00081F0004158E72DE9FE4F81EA030404F084
:1002C000004421F0004100944FF0000B23F0004364
:1002D00050EA01045ED052EA03045BD0C3F30A542F
:1002E000C1F30A552C44A4F2F3340194A0FB025448
:1002F000C1F3130141F48011C3F3130343F48013DA
:1003000001FB024400FB034E840A970A44EA81542D
:1003100047EA8357A4FB076802958D0A05FB07850A
:100320004FEA932C04FB0C542705029D4FEA065814
:1003300047EA1637B5EB08056EEB070C870E920EF1
:1003400047EA811742EA8312A7FB0201B6EB0B01D1
:1003500064EB00042B0D43EA0C335E1844EB1C5095
:10036000DA465146E7FB0201C5F313044FEA0B33AB
:1003700043EA14534FEA0432019C43EA0603A4F112
:100380000C040294009CCDE900B400F0FDF803B029
:10039000BDE8F08F00200146F9E72DE9F04D81EA34
:1003A000030404F0004B21F0004514464FF0000A0E
:1003B00023F0004150EA050220D054EA01021DD08A
:1003C000C5F30A570246C5F31303C1F31300C1F383
:1003D0000A5640F4801543F48013A7EB0608101B5F
:1003E000D64608F2FD3873EB050002D308F1010888
:1003F00001E092185B41B8F1000F03DA00200146DA
:10040000BDE8F08D00204FF48011064684460EE0D2
:10041000171B73EB050705D3121B63EB050306439C
:100420004CEA010C49084FEA300092185B4150EA4F
:100430000107EDD152EA030012D082EA040083EAF8
:100440000501084305D0101BAB4106D20122002351
:1004500006E000224FF0004302E06FF0010253106B
:100460001AEB06004CEB085110EB0A0041EB0B01B4
:10047000BDE8F04D00F079B80EB5C10F80EAE0702C
:100480000844CA07002140F233438DE80E000A46B3
:100490000B4600F079F803B000BD30B50B460146BD
:1004A00000202022012409E021FA02F59D4205D313
:1004B00003FA02F5491B04FA02F52844151EA2F1BD
:1004C0000102F1DC30BD2DE9F05F054600209246C7
:1004D0009B4688460646814640241BE02846414606
:1004E0004746224600F0E0F853465A46C01A91416A
:1004F00010D311461846224600F016F82D1A67EB65
:1005000001084F4622460120002100F00DF817EBAC
:1005100000094E41201EA4F10104DFDC48463146AB
:100520002A464346BDE8F09F202A04DB203A00FA21
:1005300002F1002070479140C2F1200320FA03F33A
:10054000194390407047202A06DBCB17203A41FA26
:1005500002F043EAE07306E041FA02F3D040C2F150
:100560002002914008431946704710B5141E73F1DC
:10057000000408DA401C41F1000192185B411A4363
:1005800001D120F0010010BD2DE9F04D92469B46AF
:1005900011B1B1FA81F202E0B0FA80F22032904655
:1005A000FFF7C2FF04460F4640EA0A0041EA0B018A
:1005B00053465A46084313D0114653EA010019D056
:1005C000C8F14002504600F06FF805460E4650460E
:1005D00059464246FFF7A8FF084305D0012004E032
:1005E00020463946BDE8F08D0020054346EAE07616
:1005F0002C4337430A986305E40AA0EB0800002265
:10060000FD0A44EA47540A3002D500200146E9E7D2
:10061000010510196941DDE9084500196941BDE886
:10062000F04DA2E7C1F30A52C1F3130140F2FF33C8
:1006300041F480119A4202DA00200146704740F2EC
:1006400033439A42A2F2334202DC524200F02CB809
:10065000FFF76ABF30B5041E71F1000404DB4FF0F0
:100660000044404264EB0101141E73F1000405DBF9
:100670001C464FF00043524263EB0403994208BF0B
:10068000904230BD064C074D06E0E06840F00103A3
:1006900094E8070098471034AC42F6D3FFF74CFDBE
:1006A0006034000880340008202A04DB203A21FA54
:1006B00002F00021704721FA02F3D040C2F120027B
:1006C000914008431946704710B500244FF48051FB
:1006D000144801F078FA00BF4FF48061114801F02E
:1006E00069FA0028F8D1FC2001F07CFC002001F020
:1006F00079FC012001F076FCFF2001F073FC44EA54
:100700000044FF2001F06EFC44EA0024FF2001F0C9
:1007100069FC04434FF48051024801F056FA204628
:1007200010BD0000000C014070B504460D464FF4AA
:1007300080510E4801F047FA00BF4FF480610B482A
:1007400001F038FA0028F8D104F00F0141F0500010
:1007500001F048FC002001F045FC284601F042FC75
:100760004FF48051014801F030FA70BD000C014097
:1007700010B5044621460120FFF7D6FFFFF7A4FF7E
:1007800010BD00BFFEE7000010B500F0E5F800F076
:10079000CBF900F09DF90948008828B900221146DC
:1007A000104600F0ADF805E04FF6FF72114600204C
:1007B00000F0A6F8142001F0A1FA10BD04000020FA
:1007C00010B504460B48844209D10121480601F0C6
:1007D000F3FA00214FF0007001F0EEFA08E0012179
:1007E000880601F0E9FA00214FF0806001F0E4FA98
:1007F00010BD00000064004010B50021837A012282
:1008000002FA03F13D4A126842F001023B4B1A60C2
:100810003A4A1C3212688A43384B1C331A60027BF6
:10082000CAB9364A0C3212688A43344B0C331A6008
:100830004288C38842EA0343304A4032847A42F80D
:1008400034300288838842EA03432C4A4032847A57
:1008500002EBC4025360027B012A19D1274A0C32F1
:1008600012680A43254B0C331A604288038842EA17
:100870000343224A4032847A42F83430C288838863
:1008800042EA03431D4A4032847A02EBC4025360B9
:10089000C27A3AB9194A121D12688A43174B1B1DB6
:1008A0001A6006E0154A121D12680A43134B1B1DFD
:1008B0001A60028932B9114A143212688A430F4B06
:1008C00014331A600289012A06D10C4A14321268C4
:1008D0000A430A4B14331A60427B012A06D1074AA5
:1008E0001C3212680A43054B1C331A60034A126813
:1008F00022F00102014B1A6010BD000000660040AA
:100900007FB504460D46164600208DF80A008DF886
:100910000B0001208DF80C00C4F34F30ADF800003F
:10092000042000EBC40080B2ADF80200ADF8045022
:10093000ADF806600020ADF8080001208DF80D002C
:100940006846FFF759FF01220221024800F02CF807
:100950007FBD00000064004008B50121052001F0C2
:100960003BFA0121480601F017FA4FF40060ADF898
:10097000000048208DF8030003208DF8020069462E
:10098000084801F043F84FF48050ADF800001820FB
:100990008DF8030003208DF802006946014801F03C
:1009A00035F808BD000801401AB143690B434361A3
:1009B00002E043698B434361704730B50246002033
:1009C0000023146824F002041460146844F0010445
:1009D000146000E05B1C546804F001041CB94FF67D
:1009E000FF74A342F6D1546804F001040CB900204E
:1009F0006CE08C79012C04D1146844F080041460FC
:100A000003E0146824F080041460CC79012C04D134
:100A1000146844F04004146003E0146824F04004B7
:100A200014600C7A012C04D1146844F02004146082
:100A300003E0146824F0200414604C7A012C04D1E3
:100A4000146844F01004146003E0146824F01004E7
:100A500014608C7A012C04D1146844F008041460EA
:100A600003E0146824F008041460CC7A012C04D14B
:100A7000146844F00404146003E0146824F00404CF
:100A800014608C78A407CD7844EA05640D7944EAB3
:100A900005444D7944EA05540D886D1E2C43D461FC
:100AA000146824F001041460002300E05B1C546807
:100AB00004F001041CB14FF6FF74A342F6D1546850
:100AC00004F001040CB1002000E0012030BD000062
:100AD0000EB51448FFF774FE684600F07BF900205D
:100AE0008DF8060001208DF807008DF80800002021
:100AF0008DF809008DF80A008DF80B008DF80200C2
:100B000001208DF8030005208DF8040002208DF8E7
:100B100005000420ADF8000069460248FFF74DFFCC
:100B20000EBD00000064004008B54FF4C06001F045
:100B300029F914208DF8000000208DF801008DF8AF
:100B4000020001208DF80300684601F0E3F808BDBB
:100B500010B500F5D87303EB01131B6803F0040311
:100B60001372137A53B900F5D87303EB01131B68A2
:100B700040F2FF7404EA5353136009E000F5D873A0
:100B800003EB01131B686FF0604404EAD303536066
:100B900000F5D87303EB01131B6803F002035372D3
:100BA00000F5D87303EB01135B6803F00F03937236
:100BB00000F5D87303EB01135B681B0AD37400F5CF
:100BC000D87303EB01139B68D37200F5D87303EB62
:100BD00001139B681C0A147300F5D87303EB01130F
:100BE0009B681C0C547300F5D87303EB01139B68CE
:100BF0001B0E937300F5D87303EB0113DB68D373FB
:100C000000F5D87303EB0113DB681C0A147400F5BC
:100C1000D87303EB0113DB681C0C547400F5D87314
:100C200003EB0113DB681B0E937421B9C36843F017
:100C30002003C36003E0036943F02003036110BD98
:100C40002DE9FC4781460D46144600200190009096
:100C50005E48C0F8049004205C4908720020487285
:100C6000082C26DA084684720020019008E015F866
:100C7000011B56480B30019A81540198401C019089
:100C80000198A042F3D35149514800F0B3F80090C5
:100C90000020019002E00198401C01909DF8001096
:100CA0004B4800F03BF9012802D00198FF28F2D10F
:100CB00089E00820454988720020019008E015F875
:100CC000011B42480B30019A81540198401C01904D
:100CD00001980828F3D33D493D4800F08BF8009077
:100CE0000020019002E00198401C01909DF8001046
:100CF000374800F013F9012802D00198FF28F2D1FB
:100D00002046E11704EB5171C1F3C708002758E0F2
:100D1000A8EB070002282FDA2046E11704EB5171F7
:100D2000C910A4EBC101294A9172002606E015F80A
:100D3000011B26480B308155701CC6B2E11704EB2D
:100D40005171C910A4EBC101B142F0DC1F49204828
:100D500000F050F800900020019002E00198401C43
:100D600001909DF800101A4800F0D8F8012826D00C
:100D70000198FF28F2D122E0082014498872002649
:100D800006E015F8011B11480B308155701CC6B2E6
:100D9000082EF6DB0D490E4800F02CF800900020DC
:100DA000019002E00198401C01909DF80010084855
:100DB00000F0B4F8012802D00198FF28F2D1781C85
:100DC000C7B24745A4DBBDE8FC87000078000020DF
:100DD0000064004000218171C17101724172817211
:100DE000C1728170C1700321017102214171012121
:100DF0000180704710B502460020936803F08063BD
:100E0000B3F1806F00D110E0936803F00063B3F199
:100E1000006F01D1012008E0936803F08053B3F123
:100E2000805F01D1022000E00420042874D002F584
:100E3000C07303EB00131B6803F0010402F5C073D9
:100E400003EB00131C600B7A7BB94B7A0C8843EAE6
:100E5000445302F5C07404EB00142468234302F5E4
:100E6000C07404EB0014236010E00B7A4C6843EA72
:100E7000C4034C7A234302F5C07404EB00142468C5
:100E8000234302F5C07404EB001423608B7A03F053
:100E90000F038B7202F5C07303EB00135B6823F042
:100EA0000F0402F5C07303EB00135C6002F5C0731E
:100EB00003EB00135B688C7A234302F5C07404EBE8
:100EC000001463608B7B1C064B7B44EA03440B7B62
:100ED00044EA0323CC7A234302F5C07404EB0014E4
:100EE000A3608B7C1C064B7C44EA03440B7C44EAE5
:100EF0000323CC7B234302F5C07404EB0014E360AE
:100F000002F5C07303EB00131B6843F0010402F504
:100F1000C07303EB00131C6010BD000010B5024647
:100F2000002321B1012907D002290FD109E09068DF
:100F30001D4C00EA04030BE090681C4C00EA04031B
:100F400006E090681A4C00EA040301E0002300BFA9
:100F500000BF184C181BA34216D007DC83B16FF0FA
:100F60008060184470B1022818D111E0B0F5007FFC
:100F700010D0114C204448B1B0F5003F0ED10BE029
:100F800002230DE000230BE0002309E0002307E02B
:100F9000012305E0012303E0012301E0002300BF5A
:100FA00000BFD8B210BD0000030000040003000819
:100FB00000000310000100080001FFF7F0B585B044
:100FC00006460F461546062D03DA50208DF8000020
:100FD00002E055208DF80000E81CC0B28DF8010039
:100FE0008DF80260002405E0395DE01C0DF800106A
:100FF000601CC4B2AC42F7DB9DF80120694603488F
:101000000088FFF71DFE05B0F0BD000004000020C1
:1010100038B505460C460094BDF80000000240EAD1
:10102000242080B20090022269462846FFF7C6FFBE
:1010300038BDF0B585B007460D46164628128DF826
:101040000000E8B28DF80100002405E0315DA01C2D
:101050000DF80010601CC4B2082CF7DB0A226946A8
:101060003846FFF7ABFF05B0F0BD00002DE9F04FAB
:1010700089B0F9480078012871D1002240F2255149
:10108000F64801F068FB142000F02CFEF4480078CC
:10109000502803D0F248007855287DD1F04890F8C8
:1010A00002900079EE49C97840EA0124EC48807941
:1010B000EB49497940EA012AB9F10A0F6DD009DC00
:1010C000B9F10A0F6AD2DFE809F01D2E4B6971866B
:1010D00069969AAAB9F1220F78D009DCB9F1150FF7
:1010E00075D0B9F1200F73D0B9F1210F56D1E6E0D8
:1010F000B9F1230F6DD0B9F1240F6BD0B9F1FF0F07
:10110000F4D19FE1D7480088A04203D04FF6FF708A
:10111000844207D1504600F0EFFAD24801880720F8
:10112000FFF776FFC7E1CF480088A04202D0B4F5B0
:10113000004F13D1302000F04AFD8346FFF79CF9A1
:101140000746C9480CC83846FFF7B5F8CDE906018F
:1011500006AE022231460420FFF730FFABE1B7E1D3
:10116000C0480088A04202D0B4F5004F1DD1002035
:1011700000F02DFD8346FFF77FF9CDE90401BA4861
:101180000CC80498FFF797F807460022B74BFFF703
:1011900004F9CDE9060102E08EE150E08AE106AEF5
:1011A000022231460520FFF709FF84E1AA20AC495D
:1011B0000870002505E0AA49485D01F089F8681C1F
:1011C000C5B2A7484078A842F5DC74E191E046E05A
:1011D00052E0A8E0F1E0AA20A1490870002505E04E
:1011E0009F49485D01F074F8681CC5B29C4840787E
:1011F000A842F5DC5FE1204601F047FB5BE1AA2055
:1012000001F066F8052001F063F8082001F060F8AD
:10121000201201F05DF8E0B201F05AF84BE1AA208B
:1012200001F056F8052001F053F8092001F050F8BC
:10123000201201F04DF8E0B201F04AF83BE1AA209B
:1012400001F046F8052001F043F80A2001F040F8CB
:10125000201201F03DF8E0B201F03AF82BE18148AC
:101260000088A04202D0B4F5004F04D17D48018827
:101270000720FFF7CDFE1EE17A480088A04202D089
:10128000B4F5004F1AD11021794800F09EFC4FF4BC
:101290008071774800F099FC4FF40071754800F0B8
:1012A00092FC4FF48071734800F08DFC6D4801880A
:1012B0000920FFF7ADFE02206F490870FBE0694886
:1012C0000088A04202D0B4F5004F11D14FF4007154
:1012D000684800F078FC4FF48071664800F075FCB7
:1012E000604801880820FFF793FE012062490870DA
:1012F000E1E05C480088A04202D0B4F5004F11D173
:101300004FF400715B4800F060FC4FF48071594865
:1013100000F05BFC534801880A20FFF779FE0020AB
:1013200055490870C7E04F480088A04202D0B4F584
:10133000004F41D15048007801283DD101024C486E
:1013400000F041FC002000F042FC8346FFF794F8D7
:10135000CDE9040144480CC80498FEF7ACFF0746E9
:101360000022424BFFF719F8CDE9060106AA3D48D5
:1013700001880520FFF75DFE0022404BDDE90601F4
:10138000FFF70BF800223E4BCDE90401DDE9060131
:10139000FFF703F807468846DDE90401CDE9007848
:1013A000CDE9020137A0DDE9062301F091FB4FF4FE
:1013B00080712F4800F009FC7DE02A480088A04297
:1013C00002D0B4F5004F3CD12B480078C8BB1021A7
:1013D000274800F0F8FB302000F0F9FB8346FFF7C8
:1013E0004BF8CDE9040120480CC80498FEF763FFD0
:1013F000074600221D4BFEF7D0FFCDE9060106AAE5
:10140000184801880420FFF714FE00221B4BDDE979
:101410000601FEF7C2FF074688460022184BDDE9A9
:101420000601FEF7BAFFCDE9038005918DE8830040
:101430001AA0DDE9062301F04BFB10210C4800F057
:10144000C4FB38E007480088A04202D0B4F5004F42
:1014500001D100F0F5FE2EE002000020003801402E
:101460006400002004000020100000200000244040
:1014700000080140000C01400600002080842E413D
:1014800000408F40254C6675412C20254C666D41EF
:101490002C20254C66410D0A00000000254C667585
:1014A000562C20254C666D562C20254C66560D0A70
:1014B0000000000000BF00BF002007490870142092
:1014C00000F01CFC012240F22551044801F043F9D0
:1014D00009B0BDE8F08F0000020000200038014094
:1014E0007047000001461B4A12681B4BB2FBF3F227
:1014F0001A4B1A701A46127802EB4203C3EBC2125F
:101500004FF6FF7303EAC202154B1A801A4612887F
:101510004A434FF0E0235A6100229A611A46126949
:1015200042F001021A6100BF4FF0E022106900F0A2
:1015300001021AB100F48032002AF5D04FF0E02207
:10154000126922F001024FF0E0231A6100229A6131
:10155000704700002400002000127A001E000020C6
:101560002000002001461B4A12681B4BB2FBF3F21D
:101570001A4B1A701A46127802EB4203C3EBC212DE
:101580004FF6FF7303EAC202154B1A80134A127812
:101590004A434FF0E0235A6100229A611A461269C9
:1015A00042F001021A6100BF4FF0E022106900F022
:1015B00001021AB100F48032002AF5D04FF0E02287
:1015C000126922F001024FF0E0231A6100229A61B1
:1015D000704700002400002000127A001E00002046
:1015E0002000002030B5044604254FF4302000F0E0
:1015F0006FF80546042D17D10C48006940F0020031
:101600000A49086108464461006940F040000861E9
:101610004FF4302000F05CF805460448006941F6BC
:10162000FD71084001490861284630BD0020024094
:1016300004200B49C96801F0010109B101200EE045
:101640000749C96801F0040109B1022007E0044913
:10165000C96801F0100109B1032000E004207047BF
:10166000002002400348006940F080000149086101
:10167000704700000020024070B504460D46042665
:10168000F00200F025F80646042E11D10948006941
:1016900040F00100074908612580F00200F018F8C9
:1016A00006460448006941F6FE7108400149086198
:1016B000304670BD0020024002480349486003489C
:1016C000486070472301674500200240AB89EFCD99
:1016D00000B502460423FFF7ABFF034603E0FFF724
:1016E000A7FF0346521E012B01D1002AF7D102B9F0
:1016F0000523184600BD000038B50446E0B28DF859
:101700000100200A8DF8000001226946034800F01C
:101710009BFC03480480FFF737F838BD00FC000845
:101720000400002008B50121042000F055FB4FF40F
:101730008870ADF8000010208DF8030003208DF8AC
:10174000020069460F4800F061F94FF488710D48B6
:1017500000F03BFA0121082000F03EFB4FF44070FE
:10176000ADF8000010208DF8030003208DF8020072
:101770006946054800F04AF94FF44071024800F00C
:1017800024FA08BD00080140000C01402DE9F04793
:10179000A6B0602000F01BFA2490702000F017FA29
:1017A0002590502000F013FA0A2190FBF1F400205C
:1017B00000F00DFA0746FEF75FFE05460022834B58
:1017C000FEF7EBFDCDE92001002000F000FA07460E
:1017D000FEF752FE054600227C4BFEF7DEFDCDE90A
:1017E0001C01002000F0F3F90746FEF745FE054610
:1017F0000022764BFEF7D1FDCDE91801002000F064
:10180000E6F90746FEF738FE054600226F4BFEF765
:10181000C4FDCDE91401002000F0D9F90746FEF718
:101820002BFE05460022694BFEF7B7FDCDE91001FE
:10183000002000F0CCF90746FEF71EFE0546002208
:10184000624BFEF7AAFDCDE90C01002000F0BFF9C4
:101850000746FEF711FE054600225C4BFEF79DFD94
:10186000CDE90801002000F0B2F90746FEF704FEBA
:1018700005460022554BFEF790FDCDE904010020FE
:1018800000F0A5F90190FEF7F7FD074600224F4B47
:10189000FEF783FD05460E46002000F098F9019002
:1018A000FEF7EAFD07460022484BFEF776FD2A4682
:1018B0003346CDE90201FEF757FC8146DDE90423FA
:1018C000FEF752FCCDE90601DDE90823FEF74CFCEA
:1018D000CDE90A01DDE90C23FEF746FCCDE90E0156
:1018E000DDE91023FEF740FCCDE91201DDE9142308
:1018F000FEF73AFCCDE91601DDE91823FEF734FCCA
:10190000CDE91A01DDE91C23FEF72EFCCDE91E010D
:10191000DDE92023FEF728FCCDE922012346CDF89E
:1019200000B02BA0DDE9241201F0D2F82046FEF72A
:10193000A3FD07462B480CC83846FEF7BCFC0546FD
:101940000022294BFEF729FDCDE9200125480CC8CE
:10195000DDE92201FEF7AFFC05460022224BFEF72F
:101960001CFD81468A462598FEF786FD07461D48E0
:101970000CC83846FEF79FFC054600221B4BFEF7BD
:101980000CFDCDE91E012498FEF776FD07461548AB
:101990000CC83846FEF78FFC05460022134BFEF7B5
:1019A000FCFCCDE91C01DDE92001CDE9029ACDE97D
:1019B0000401DDE91E01CDE900010DA0DDE91C23D4
:1019C00001F086F826B0BDE8F08700000000244052
:1019D00025642C2025642C2025642C2025640D0AE8
:1019E000000000001000002000408F4080842E4145
:1019F000254C66562C20254C66562C20254C666DB1
:101A0000562C20254C666D560D0A00002DE9F0413C
:101A1000024600250026002000230024002791F81C
:101A200003C00CF00F0591F803C00CF0100CBCF1D2
:101A3000000F03D091F802C04CEA050591F800C0F0
:101A4000BCF1000F31D0146800202BE04FF0010CE6
:101A50000CFA00F3B1F800C00CEA03069E4220D154
:101A600083004FF00F0C0CFA03F7BC4305FA03FC9C
:101A70004CEA040491F803C0BCF1280F06D14FF0E2
:101A8000010C0CFA00FCC2F814C00AE091F803C083
:101A9000BCF1480F05D14FF0010C0CFA00FCC2F864
:101AA00010C0401C0828D1D31460B1F800C0BCF1AC
:101AB000FF0F34DD546800202EE000F1080C4FF0D9
:101AC000010808FA0CF3B1F800C00CEA03069E42C4
:101AD00021D183004FF00F0C0CFA03F7BC4305FA39
:101AE00003FC4CEA040491F803C0BCF1280F05D1B3
:101AF00000F1080C08FA0CF8C2F8148091F803C041
:101B0000BCF1480F07D100F1080C4FF0010808FAAA
:101B10000CF8C2F81080401C0828CED35460BDE8F1
:101B2000F0810000F0B50A460023002400210025C2
:101B300000F00046B6F1004F02D11D4EF16901E000
:101B40001B4E7168C0F3034583B200F44016B6F52E
:101B5000401F08D121F07061154E766826F070663E
:101B6000134F7E6012E000F48016B6F5801F06D198
:101B7000032606FA05F4A14341F0706106E0460D24
:101B8000360103FA06F6B14341F0706122B1460D09
:101B9000360103FA06F6314300F00046B6F1004F75
:101BA00002D1034EF16101E0014E7160F0BD000011
:101BB000000001400246002093680B400BB1012059
:101BC00000E00020704741617047016170472DE9D6
:101BD000F041074647F00800FEF7CAFD064647F009
:101BE0000800FEF7C5FD064606F4000020B1F643E6
:101BF000C6F31606761C764247F00800FEF7B8FDDD
:101C0000044604F4000020B1E443C4F31604641C49
:101C1000644247F00800FEF7ABFD054605F40000FE
:101C200020B1ED43C5F316056D1C6D4230192844F3
:101C3000032190FBF1F0BDE8F08100BFFEE700005A
:101C400008B50121082000F0C7F84FF40060ADF896
:101C5000000010208DF8030003208DF80200694673
:101C60000C48FFF7D3FE4FF400610A48FFF7ABFFC3
:101C70004FF48060ADF8000048208DF80300032089
:101C80008DF8020069460348FFF7C0FE00F01EF918
:101C900008BD0000000C014008B50121052000F03E
:101CA0009BF801210B48FFF73DFF4FF40040ADF8D2
:101CB000000010208DF8030003208DF80200694613
:101CC0000548FFF7A3FE4FF400410348FFF77DFFEF
:101CD00008BD0000000230000008014000BFFEE720
:101CE0007047000000F01F0201219140024A4309A1
:101CF00042F823107047000080E100E000F01F026E
:101D0000012191404209920002F1E022C2F8001143
:101D10007047000070B5002100230F22C47804B37F
:101D2000154C246804F4E064C4F5E064210AC1F1B0
:101D30000403CA40447804FA03F184781440214330
:101D400009010E4C0678A155047804F01F05012402
:101D5000AC4005786D11AD0005F1E025C5F80041F6
:101D600009E0047804F01F050124AC40044D067816
:101D7000761145F8264070BD0CED00E000E400E06F
:101D800080E100E002490143024A1160704700000F
:101D90000000FA050CED00E029B1064AD2690243C1
:101DA000044BDA6104E0034AD2698243014BDA61F1
:101DB000704700000010024029B1064A1269024330
:101DC000044B1A6104E0034A12698243014B1A6111
:101DD000704700000010024029B1064A9269024390
:101DE000044B9A6104E0034A92698243014B9A6171
:101DF000704700000010024030B50021002200248E
:101E000000232D4D6D6805F00C0121B1042905D08A
:101E1000082923D105E0294D056022E0274D056002
:101E20001FE0254D6D6805F47012234D6D6805F4B3
:101E30008034022505EB92421CB9214D55430560C3
:101E40000BE01D4D6D6805F400351DB11C4D55436B
:101E5000056002E0194D5543056002E0174D05602D
:101E600000BF00BF144D6D6805F0F0010909154D64
:101E70006B5C0568DD4045600F4D6D6805F4E06101
:101E8000090A104D6B5C4568DD4085600A4D6D6840
:101E900005F46051C90A0B4D6B5C4568DD40C560B7
:101EA000054D6D6805F44041890B074D6B5CC568B5
:101EB000B5FBF3F5056130BD0010024000127A0059
:101EC00000093D00380000204800002000B587B020
:101ED00001210820FFF780FF01218803FFF75CFF45
:101EE0004FF46040ADF8040003208DF80600182080
:101EF0008DF8070001A91D48FFF788FD4FF48050B9
:101F0000ADF8040003208DF8060010208DF80700BE
:101F100001A91648FFF77AFD4FF480511348FFF7E7
:101F200054FE0020ADF808004FF48270ADF80A00AE
:101F30000020ADF80C00ADF80E000120ADF8100047
:101F40004002ADF812003820ADF814000020ADF8C2
:101F500016000720ADF8180002A9054800F024F883
:101F60000121034800F006F807B000BD000C014055
:101F70000038004021B1028842F04002028004E0B3
:101F800002884FF6BF731A40028070470246002055
:101F900013890B400BB1012000E00020704701467F
:101FA000888970478181704710B50022028802F449
:101FB00041520B884C8823438C882343CC8823438D
:101FC0000C8923434C8923438C892343CC892343A5
:101FD0001A430280838B4FF2FF74234083830B8A62
:101FE000038210BD70B50446002500BF02210B48D6
:101FF000FFF7CCFF0028F9D021460848FFF7D2FFB1
:1020000000BF01210548FFF7C1FF0028F9D00348B0
:10201000FFF7C5FFC5B2284670BD0000003800407C
:1020200030B503460C461546002207E0184600F07E
:1020300008F824F812009B1C501C82B2AA42F5DB5F
:1020400030BD0146088870472DE9F05F80468A461A
:102050001746B8F1006F02D33348804501D3BDE87D
:10206000F09FFFF729FBA8F1006B4FEA9B25CBF30C
:102070004809C9F50074A74200DC3C464DE04FF02A
:10208000006101EB85208A142849FFF7C9FF00266B
:102090000BE009EB0600254931F810004FF6FF71FF
:1020A000884200D003E0701C86B2A642F1DB00BF7C
:1020B000A6421BDA4FF0006101EB8520FFF792FA90
:1020C000002608E03AF8160006EB0901174A22F844
:1020D0001100701C86B2A642F4DB4FF0006101EBE8
:1020E00085208A14114900F023F804E02246514665
:1020F000404600F01DF8A74200D10FE06D1C4FF0E4
:1021000000090AEB440AA044381B87B2B7F5007FE8
:1021100002DD4FF4007400E03C46B0E700BFFFF77B
:10212000A1FA00BF9BE7000000000108A00000200A
:102130002DE9F04105460E461746002407E036F823
:1021400014102846FFF798FAAD1C601C84B2BC42FC
:10215000F5DBBDE8F081704710B500F001F810BD67
:102160000CB50020019000903348006840F48030A6
:102170003149086000BF3048006800F4003000902A
:102180000198401C0190009818B90198B0F5A06F13
:10219000F1D12948006800F4003010B1012000900E
:1021A00001E0002000900098012843D123480068F6
:1021B00040F01000214908600846006820F0030044
:1021C00008600846006840F0020008601A4840684D
:1021D000194948600846406848600846406840F42D
:1021E000806048600846406820F47C1048600846DB
:1021F000406840F4E81048600846006840F080708D
:10220000086000BF0C48006800F000700028F9D09A
:102210000948406820F003000749486008464068C4
:1022200040F00200486000BF0348406800F00C0026
:102230000828F9D10CBD0000001002400020024027
:10224000012080F3138800BF00BF0748006800F436
:10225000E06006490843001D03490860BFF34F8F43
:1022600000BF00BFFEE700000CED00E00000FA0533
:1022700010B51348006840F0010011490860084695
:102280004068104908400E494860084600680E49F9
:1022900008400B4908600846006820F48020086068
:1022A0000846406820F4FE0048604FF41F00886034
:1022B000FFF752FF4FF000600449086010BD0000B6
:1022C000001002400000FFF8FFFFF6FE08ED00E0FE
:1022D00010B504462146054800F0D3FA00BF40215E
:1022E000024800F001FA0028F9D010BD0038014082
:1022F00010B586B0044601210420FFF76DFD0121D1
:102300008803FFF769FD4FF40070ADF81400182042
:102310008DF8170003208DF8160005A92148FFF756
:1023200075FB4FF48060ADF8140004208DF81700A1
:1023300005A91C48FFF76AFB01940020ADF80800CE
:10234000ADF80A00ADF80C00ADF810000C20ADF8A7
:102350000E0001A9144800F023FA012240F22441A2
:10236000114800F0F8F9012240F225510E4800F022
:10237000F2F901210C4800F0ABF94FF4E060FFF7EF
:1023800001FD25208DF8000000208DF801000120BE
:102390008DF802008DF803006846FFF7BBFC06B01D
:1023A00010BD0000000801400038014070B500BFBA
:1023B00040F22551174800F0A4F9C0B11648007842
:1023C00040B9002404E0002014490855601CC4B240
:1023D000142CF8DB0F4800F04FFAC1B20E48027817
:1023E0000078401C0C4B18700C48815411E040F2EE
:1023F0002441084800F085F958B106480088C5B264
:102400000448001D0088C5B201200549087000F08D
:1024100009F870BD00380140010000205000002084
:10242000000000202DE9FF4799480078012870D16D
:10243000142001218140974A430942F8231000BF2C
:10244000002240F22551944800F085F99348007825
:10245000AA2870D1914890F802A0BAF1140F6BD05D
:102460001ADCBAF1040F51D00CDCBAF1000F2ED0F7
:10247000BAF1010F32D0BAF1020F37D0BAF1030F1F
:102480007DD13BE0BAF1110F44D0BAF1120F54D014
:10249000BAF1130FF4D153E0BAF1230F70D00CDC72
:1024A000BAF1150F6DD0BAF1200F6BD0BAF1210F30
:1024B00069D0BAF1220FE3D1AEE0BAF1240F7CD09B
:1024C000BAF1EE0F7AD0BAF1FF0FD9D1BFE00422F2
:1024D0007249C91C0020FEF771FDC0E002226F495D
:1024E000C91C6F480088FEF7ABFBB8E002226B49BD
:1024F000C91C6B480088FEF7A3FBB0E002226749C5
:10250000C91C67480088FEF79BFBA8E0FFF73EF96F
:10251000A5E0BBE0614800796049C97840EA012044
:102520005F49088008460088FFF7E6F85C480088A5
:1025300000F0ABF993E093E02CE000F063FA8EE05A
:102540003020FFF744FB8046FDF796FF06465548CE
:102550000CC83046FDF7AFFE04460D460022524B34
:1025600020462946FDF719FF06460F4600224F4B2D
:1025700020462946FDF711FF22462B4604E06DE078
:1025800054E02EE034E03DE08DE8C30048A000F0C8
:102590009FFA64E07020FFF71AFB8046FDF76CFF9E
:1025A000064640480CC83046FDF785FE04460D46F9
:1025B00000223D4B2046294601E03EE044E0FDF785
:1025C000ECFE06460F460022384B20462946FDF712
:1025D000E4FE22462B468DE8C30035A000F078FAD1
:1025E0003DE002222D49C91C1520FEF7E7FC36E02C
:1025F00002222A49C91C2020FEF7E0FC02203249B1
:1026000008702CE002222549C91C2120FEF7D6FCC7
:1026100001202D49087022E002222049C91C2220F5
:10262000FEF7CCFC00202849087018E002221B4964
:10263000C91C2320FEF7C2FC11E002221749C91C65
:102640002420FEF7BBFC0AE0FFF7FAFD07E00222B8
:102650001249C91CFF20FEF7B1FC00E000BF00BF1B
:1026600000200B49087019490870012240F22551D9
:10267000094800F070F814200121814042099200BD
:1026800002F1E022C2F8001100BF00BFBDE8FF87E1
:102690000000002080E100E00038014050000020F0
:1026A000040000201000002080842E4100408F4054
:1026B000254C6675562C20254C666D562C20254CD5
:1026C00066560D0A000000000600002001000020F0
:1026D00021B1828942F40052828104E082894DF660
:1026E000FF731A408281704702460020B1F5007FD7
:1026F00000D100BF13880B400BB1012000E0002087
:10270000704770B50246002400230025002040F6E3
:102710006A16B14200D100BFC1F3421501F01F0398
:10272000012606FA03F3012D02D19689334006E013
:10273000022D02D1168A334001E0968A33400C12F2
:10274000012606FA04F41688344013B10CB10120B6
:1027500000E0002070BDF0B50346002400260025EF
:10276000002040F66A17B94200D100BF1846C1F3F5
:10277000421401F01F06012707FA06F5012C01D1CA
:102780000C3004E0022C01D1103000E014301AB1FA
:1027900007682F43076002E00768AF430760F0BD9A
:1027A0002DE9F04786B005460E460024A24600BF3C
:1027B000A1460027B08900B100BF2F462C8A4CF6F5
:1027C000FF700440F08804432C82AC894EF6F3106D
:1027D0000440B08831890843718908430443AC81BF
:1027E000AC8A4FF6FF400440B0890443AC8201A894
:1027F000FFF702FB1F48874202D1DDF810A001E07D
:10280000DDF80CA0A88900F4004040B10AEBCA0032
:1028100000EB0A1031684900B0FBF1F807E00AEB61
:10282000CA0000EB0A1031688900B0FBF1F864209F
:10283000B8FBF0F004012009642101FB1089A8898C
:1028400000F4004040B1322000EBC900B0FBF1F0D1
:1028500000F00700044308E0322000EB0910642177
:10286000B0FBF1F000F00F0004432C8106B0BDE88E
:10287000F08700000038014001468888C0F3080056
:102880007047C1F308028280704710B50446AA2041
:10289000FFF71EFD0520FFF71BFD0720FFF718FDC2
:1028A0002012FFF715FDE0B2FFF712FD10BD00008A
:1028B00010B500241420FFF715FA4C4A00214C48AB
:1028C000FEF746F94B480078002846D14748C07AC1
:1028D000502813D100BF06E044480B30005D464944
:1028E0000855601CC4B24148807AA042F4DC012043
:1028F0004249087000203F49087073E03B48C07AA5
:1029000055281FD100203D49087000240BE03748AE
:102910000B30005D3849085536480078401C354971
:102920000870601CC4B23148807AA042EFDC2F49A5
:102930004FF6FF7248681146FDF7E2FF1420FFF7DB
:10294000DDF94FE000202D4908702A490870FDF795
:102950001BFF1420FFF7D2F944E0274800785528E0
:1029600040D12448007800283CD000240CE01F48C7
:102970000B30015D1F4802780078401C1D4B187019
:102980001D488154601CC4B21848807AA042EEDC15
:102990001948407817490978884208D10120174919
:1029A0000870002013490870FDF7EEFE1AE0124887
:1029B00040781049097888420ADD0C494FF6FF72C9
:1029C00048681146FDF79CFF1420FFF797F909E0CE
:1029D00000200A49087007490870FDF7D5FE142049
:1029E000FFF78CF9FEF742FB10BD00008C000020C1
:1029F000006400400300002064000020020000206A
:102A000000BFFEE72DE9FF4710212748FFF7DBF85D
:102A10004FF47A70FEF7A6FD4020FFF7D8F8804605
:102A2000FDF72AFD064621480CC83046FDF743FC59
:102A300004460D4600221E4B20462946FDF7ADFCFC
:102A400006460F4600221B4B20462946FDF7A5FCF3
:102A500022462B468DE8C30017A000F039F860200D
:102A6000FFF7B5F88046FDF707FD06460F480CC88E
:102A70003046FDF720FC04460D4600220C4B204654
:102A80002946FDF78AFC06460F460022094B2046E0
:102A90002946FDF782FC22462B468DE8C30006A09E
:102AA00000F016F8BDE8FF87000801401000002084
:102AB00080842E4100408F40254C6675562C202581
:102AC0004C666D562C20254C66560D0A0000000001
:102AD0000FB4054B10B503A9044A029800F0DAF8C8
:102AE00010BC5DF814FB0000C53300084C0000204A
:102AF00002E008C8121F08C1002AFAD170477047C7
:102B0000002001E001C1121F002AFBD17047000024
:102B10002DE9FF5F82B00021DDE90430020DDDF810
:102B200040B0034318D044F61050A2F2FF324243A3
:102B30001514119801281FD0A5EB0B00401C5FEA6B
:102B4000000A4FF000064E4FDFF83891B04650466D
:102B500015D5CAF1000413E0119801244AA30128F5
:102B600001D16FEA0B010298119AC0E90031C0E966
:102B7000024206B0BDE8F09FCBF10000DFE704465B
:102B80000021404A491842EB0450CDE9001012E000
:102B9000E00707D032463B4640464946FDF78BFBEF
:102BA0008046894632463B4610461946FDF783FB70
:102BB00006460F466410002CEAD1DDE90401DDE988
:102BC0000023BAF1000F06DAFDF775FB42464B46CB
:102BD000FDF771FB05E0FDF7E0FB42464B46FDF7D4
:102BE000DCFB04460E460022284BFDF733FD03D8DC
:102BF0004FF0FF30014607E00022254B20463146CA
:102C0000FDF7B2FAFDF70EFD102409E0002C0ADBF7
:102C10000A220023FDF757FC039B30321A55641E2D
:102C200050EA0102F2D1641C039AC4F11103144466
:102C3000119A012A03D0012208430DD10AE008436A
:102C400004D000204FF0110B119072E7A3EB0B059D
:102C50006D1E0DE05B4504DD4FF0000205F101053E
:102C600004E003DA4FF00002A5F10105002AECD0E0
:102C700002981199C0E90231C0E9004579E70000E6
:102C8000000014400000F03F300000000000F0435E
:102C90000000E03F2DE9FF4F95B09B468946064670
:102CA00000250FE2252877D100242746F84A012184
:102CB000059400E0044316F8013F203B01FA03F0BD
:102CC0001042F7D130782A2811D06FF02F033078D6
:102CD000A0F13002092A16D8059A44F0020402EB4A
:102CE000820203EB42021044761C0590EFE759F88C
:102CF000042B0592002A03DA504244F40054059054
:102D000044F00204761C30782E2816D116F8010FF4
:102D100044F004042A280DD06FF02F023078A0F17F
:102D20003003092B09D807EB870302EB4303C718CD
:102D3000761CF3E759F8047B761C30786C280FD0AA
:102D400006DC4C2817D068280DD06A2814D104E07E
:102D5000742810D07A280FD10DE044F400140AE052
:102D600044F4801401E044F440147278824202D1A9
:102D700004F58014761C761C307866280BD013DCA2
:102D8000582877D009DC002875D04528F6D0462889
:102D9000F4D047281AD19DE118E0632835D0642883
:102DA00079D0652812D195E1702873D008DC6728A6
:102DB000F1D069286FD06E280DD06F2806D1B5E00C
:102DC00073282CD0752875D0782874D05A46179956
:102DD00090476D1C75E1C4F30250022809D0032806
:102DE0000DD0D9F8001004280DD00D6009F10409A8
:102DF00067E1D9F80010EA17C1E90052F6E7D9F8FF
:102E000000100D80F2E70D70F0E719F8041B8DF843
:102E1000001000208DF80100EA46012003E059F877
:102E200004AB4FF0FF3061074FF0000102D40DE01A
:102E300008F101018846B9420FDA8045F8DB1AF83B
:102E400008100029F4D108E008F101018846814208
:102E5000FADB1AF808100029F6D105985B46A0EBBA
:102E6000080721463846179A00F094FA284400EBE8
:102E7000080507E04DE029E10DE01AF8010B5A467C
:102E800017999047B8F10108F7D25B4621463846BA
:102E9000179A13E142E00A220092C4F302524FF063
:102EA000000A022A08D059F804CB032A4FEAEC7131
:102EB0000AD00DE029E02AE009F1070121F007021C
:102EC000F2E802C1914609E00FFA8CFC4FEAEC717E
:102ED000042A03D14FFA8CFC4FEAEC71002907DA7F
:102EE0000A460021DCF1000C61EB02012D2202E018
:102EF000220504D52B228DF80420012203E0E207ED
:102F000001D02022F7E7904659E00A2102E0102282
:102F10000DE010214FF0000A00910BE010224FF05D
:102F2000000A44F004040827009203E008224FF04E
:102F3000000A0092C4F30252022A05D059F804CBC9
:102F40000021032A08D009E009F1070121F0070256
:102F5000F2E802C1914605E01FFA8CFC042A01D177
:102F60000CF0FF0C4FF00008220728D5702806D07F
:102F7000009B83F0100353EA0A0305D00EE04022C1
:102F80008DF80420012208E05CEA010206D030221C
:102F90008DF804208DF8050002229046009B83F0F6
:102FA000080353EA0A030AD15CEA010201D162076D
:102FB00005D530228DF804204FF001087F1E5828D7
:102FC00004D034A003900EA802900DE036A0F9E7DB
:102FD00053466046009AFDF776FA84460398825C71
:102FE0000298401E029002705CEA0100F0D1029843
:102FF00006A9081A00F1200A600702D524F48034DB
:1030000000E00127574502DDA7EB0A0000E00020A1
:1030100000EB0A01009005984144401A0590E00336
:1030200006D45B462146179A059800F0B3F905448B
:10303000002706E001A85A46C05D179990476D1C0D
:103040007F1C4745F6DBE0030CD55B462146179A0B
:10305000059800F09FF9054404E030205A4617997E
:1030600090476D1C0099481E00900029F5DC08E08F
:10307000029802995A460078491C02911799904784
:103080006D1CBAF10001AAF1010AF1DC65E1000052
:10309000092801003031323334353637383961622E
:1030A00063646566000000003031323334353637F2
:1030B00038394142434445460000000000F058F9C9
:1030C0000544761C307800287FF4ECAD19B0284612
:1030D000BDE8F08F620700D4062709F1070222F04D
:1030E000070CFCE80223E14603F000485FEA080C05
:1030F00002D00FF2702C0DE05FEA045C02D50FF2F3
:10310000682C07E05FEAC47C02D00FF2602C01E07B
:10311000AFF2700C4FF0FF3823F00043CDF850C0F1
:1031200065280CD006DC452809D046281DD0472844
:103130003DD13DE0662818D067287ED138E00021D7
:10314000112F01DB112000E0781CCDE9000106A958
:103150000EA8FFF7DDFCDDE90F010E9A03910021B7
:10316000009207F1010A04914DE04FF000400097F2
:10317000CDE9011006A90EA8FFF7CAFCDDE90F0290
:1031800003920E9B11990022DDF80CA0009304928B
:1031900011B9791C00EB010AB7EB0A0004D4C0F1A5
:1031A000FF3007F1010A0490AAEB0700019044E008
:1031B000012F00DA01270021112F01DD112000E08D
:1031C0003846CDE9000106A90EA8FFF7A1FCDDE90C
:1031D0000F010E9A0391002104910092BA46210733
:1031E0000CD40399514500DA8A46BAF1010F05DD86
:1031F000009AAAF10101515C302908D0B84202DAE4
:1032000010F1040F06DA0121CDE9011015E0AAF151
:103210000101E9E7002805DC049901440491AAEBC7
:10322000000102E0411C514500DD8A460499401A24
:10323000401C01904FF000400290200704D40198F8
:10324000504501DBCDF8048000208DF84F00029836
:103250000DF14F07B0F1004F25D02B200E900298B2
:103260004FF0020800280CDA404202902D200E9008
:1032700007E00A210298FDF710F93031029007F8B3
:10328000011DB8F10001A8F10108F2DC0298002844
:10329000EFD1791E0E980870307800F0200040F0D1
:1032A000450007F8020D12A8C01B00F1070814988A
:1032B000007800B1012000EB0A01019801EBE071F8
:1032C00005984144401A401E0590E00306D45B4631
:1032D0002146179A059800F05DF805441498007887
:1032E00018B15A46179990476D1CE00324D55B46E8
:1032F0002146179A059800F04DF805441CE0049803
:10330000002807DBDDE90301884203DD0098405C0B
:10331000179901E0179930205A469047049805F113
:103320000105401C04900198401E019004D12E20FC
:103330005A46179990476D1CBAF10001AAF1010A8B
:10334000DDDC05E017F8010B5A46179990476D1C14
:10335000B8F10001A8F10108F4DC5B462146179A98
:103360000598ABE62D0000002B00000020000000B7
:103370002DE9F041044600251E461746880404D472
:1033800005E039462020B0476D1C641EF9D528465B
:10339000BDE8F0812DE9F041044600251E46904627
:1033A000C80301D5302700E02027880404D505E0B4
:1033B00041463846B0476D1C641EF9D52846BDE825
:1033C000F081000070B504460D46E1B20548FFF7F4
:1033D00058FA00BF0348008800F080000028F9D0A8
:1033E000204670BD00380140012218491848FEF7F8
:1033F00017FE164840781549097840EA012015491A
:103400000880FEF749FC4FF4E130FEF771FF1148E8
:103410000088FFF73AFAFDF7B7F9FEF711FC6420D0
:10342000FEF760F84FF400610B48FEF7CEFBFEF7A5
:1034300079F9084801880720FDF7EAFD4FF40041BB
:103440000648FEF7C0FB00BFFEE700001C0000209E
:1034500000FC000804000020000C014000080140AE
:10346000803400080000002050000000F02A00080E
:10347000D03400085000002050080000002B000845
:1034800000000000008000000000000000000000BC
:1034900000000000D012E33F000000000000000028
:1034A0000000000000A24A0400000000000000002C
:1034B00001020304060708090000000001020304DA
:1034C00001020304060708090204060800000000C0
:0400000508000131BD
:00000001FF
