:020000040800F2
:10000000E00E002045010008D92000083520000836
:10001000D52000081D080008553400080000000025
:100020000000000000000000000000004F25000854
:1000300041170008000000005B0100085D01000896
:100040005F0100085F0100085F0100085F01000810
:100050005F0100085F0100085F0100085F01000800
:100060005F0100085F0100085F0100085F010008F0
:100070005F0100085F0100085F0100085F010008E0
:100080005F0100085F0100085F0100085F010008D0
:10009000553200085F0100085F0100085F01000899
:1000A0005F0100085F0100085F0100085F010008B0
:1000B0005F0100085F0100085F0100085F010008A0
:1000C0005F0100085F0100085F0100085F01000890
:1000D0005F010008992800085F0100085F0100081F
:1000E0005F0100085F0100085F0100085F01000870
:1000F0005F0100085F0100085F0100085F01000860
:100100005F0100085F0100085F0100085F0100084F
:100110005F0100085F0100085F0100085F0100083F
:100120005F0100085F0100085F0100085F0100082F
:10013000DFF80CD000F0EEFA00480047293E000836
:10014000E00E00200648804706480047FEE7FEE72D
:10015000FEE7FEE7FEE7FEE7FEE7FEE7FEE7FEE777
:10016000A5260008310100082DE9FE4F804681EAEE
:100170000300C00F0C46009021F0004123F0004521
:10018000B8EB0200A94105D24046214690461C46E4
:100190000B46024623F00040104347D0270DC7F31B
:1001A0000A00C3F30A510290401A019040286BDA0A
:1001B000C3F3130040F4801B0098924620B1002343
:1001C000D2EB030A63EB0B0B01985946C0F14002D6
:1001D000504600F0E0F906460D4650465946019A51
:1001E00000F0F8F910EB08006141002487EA115291
:1001F00084EAE7731A4340D0009A62B3019A012A55
:100200004FEA075215DC001B61EB02014FF0004280
:1002100002EA0752CDE90042001C41F58011324646
:100220002B4600F0F8F903B0BDE8F08F40462146B8
:10023000F9E7001B61EB0201001C41F58013001877
:100240005B412018A2F5001747EB030140EAD57087
:10025000B6196D4111E06D084FEA360645EAC075E2
:100260004FEA0752001B61EB0201001C41F58011AF
:1002700049084FEA30000019514132462B4603B07D
:10028000BDE8F04F00F0B8B900980122400000230B
:10029000D0EB020263EBE073009821464FEAE07472
:1002A000B8EB000061EB0401E9E783F000435BE792
:1002B00081F0004158E72DE9FE4F81EA030404F084
:1002C000004421F0004100944FF0000B23F0004364
:1002D00050EA01045ED052EA03045BD0C3F30A542F
:1002E000C1F30A552C44A4F2F3340194A0FB025448
:1002F000C1F3130141F48011C3F3130343F48013DA
:1003000001FB024400FB034E840A970A44EA81542D
:1003100047EA8357A4FB076802958D0A05FB07850A
:100320004FEA932C04FB0C542705029D4FEA065814
:1003300047EA1637B5EB08056EEB070C870E920EF1
:1003400047EA811742EA8312A7FB0201B6EB0B01D1
:1003500064EB00042B0D43EA0C335E1844EB1C5095
:10036000DA465146E7FB0201C5F313044FEA0B33AB
:1003700043EA14534FEA0432019C43EA0603A4F112
:100380000C040294009CCDE900B400F044F903B0E1
:10039000BDE8F08F00200146F9E72DE9F04D81EA34
:1003A000030404F0004B21F0004514464FF0000A0E
:1003B00023F0004150EA050220D054EA01021DD08A
:1003C000C5F30A570246C5F31303C1F31300C1F383
:1003D0000A5640F4801543F48013A7EB0608101B5F
:1003E000D64608F2FD3873EB050002D308F1010888
:1003F00001E092185B41B8F1000F03DA00200146DA
:10040000BDE8F08D00204FF48011064684460EE0D2
:10041000171B73EB050705D3121B63EB050306439C
:100420004CEA010C49084FEA300092185B4150EA4F
:100430000107EDD152EA030012D082EA040083EAF8
:100440000501084305D0101BAB4106D20122002351
:1004500006E000224FF0004302E06FF0010253106B
:100460001AEB06004CEB085110EB0A0041EB0B01B4
:10047000BDE8F04D00F0C0B80EB5C10F80EAE070E5
:100480000844CA07002140F233438DE80E000A46B3
:100490000B4600F0C0F803B000BD70B5C1F30A52BE
:1004A00001F000450024C1F3130140F2FF3341F491
:1004B00080119A4201DA002070BD40F233439A4223
:1004C000A2F2334203DC524200F074F800E09040A4
:1004D0002C43F1D0404270BD30B5041E71F10004D0
:1004E00004DB4FF00044404264EB0101141E73F141
:1004F000000405DB1C464FF00043524263EB04034B
:100500008B4208BF824230BD30B50B460146002009
:100510002022012409E021FA02F59D4205D303FAC5
:1005200002F5491B04FA02F52844151EA2F1010246
:10053000F1DC30BD2DE9F05F0546002092469B4678
:1005400088460646814640241BE0284641464746E9
:10055000224600F02FF853465A46C01A914110D354
:1005600011461846224600F016F82D1A67EB0108CE
:100570004F4622460120002100F00DF817EB00093C
:100580004E41201EA4F10104DFDC484631462A46D4
:100590004346BDE8F09F202A04DB203A00FA02F12E
:1005A000002070479140C2F1200320FA03F3194361
:1005B00090407047202A04DB203A21FA02F0002103
:1005C000704721FA02F3D040C2F120029140084363
:1005D00019467047202A06DBCB17203A41FA02F071
:1005E00043EAE07306E041FA02F3D040C2F1200290
:1005F000914008431946704710B5141E73F100046A
:1006000008DA401C41F1000192185B411A4301D104
:1006100020F0010010BD2DE9F04D92469B4611B12E
:10062000B1FA81F202E0B0FA80F220329046FFF790
:10063000B2FF04460F4640EA0A0041EA0B01534666
:100640005A46084313D0114653EA010019D0C8F1A5
:1006500040025046FFF7AEFF05460E46504659464B
:100660004246FFF798FF084305D0012004E02046EA
:100670003946BDE8F08D0020054346EAE0762C437C
:1006800037430A986305E40AA0EB08000022FD0A3C
:1006900044EA47540A3002D500200146E9E7010543
:1006A00010196941DDE9084500196941BDE8F04DBF
:1006B000A2E7C1F30A52C1F3130140F2FF3341F440
:1006C00080119A4202DA00200146704740F233431B
:1006D0009A42A2F2334202DC5242FFF76BBFFFF7AD
:1006E0005ABF000030B5041E71F1000404DB4FF066
:1006F0000044404264EB0101141E73F1000405DB69
:100700001C464FF00043524263EB0403994208BF7A
:10071000904230BD064C074D06E0E06840F0010312
:1007200094E8070098471034AC42F6D3FFF704FD75
:10073000E03F00080040000810B500244FF480514D
:10074000144801F030FB00BF4FF48061114801F004
:1007500021FB0028F8D1FC2001F040FE002001F030
:100760003DFE012001F03AFEFF2001F037FE44EA91
:100770000044FF2001F032FE44EA0024FF2001F093
:100780002DFE04434FF48051024801F00EFB204639
:1007900010BD0000000C014070B504460D464FF43A
:1007A00080510E4801F0FFFA00BF4FF480610B4802
:1007B00001F0F0FA0028F8D104F00F0141F05000E8
:1007C00001F00CFE002001F009FE284601F006FEB3
:1007D0004FF48051014801F0E8FA70BD000C01406F
:1007E00010B506210020FFF7D7FF01210220FFF7F7
:1007F000D3FF33210320FFF7CFFF00210420FFF7B1
:10080000CBFFF02001F0EAFD10BD10B504462146F3
:100810000120FFF7C1FFFFF78FFF10BD00BFFEE70C
:1008200010B500F0E5F800F0CBF900F09DF90948AB
:10083000008828B900221146104600F0ADF805E006
:100840004FF6FF721146002000F0A6F8142001F0C8
:1008500051FC10BD0400002010B504460B48844232
:1008600009D10121480601F0A3FC00214FF00070DE
:1008700001F09EFC08E00121880601F099FC0021AE
:100880004FF0806001F094FC10BD00000064004057
:1008900010B50021837A012202FA03F13D4A126861
:1008A00042F001023B4B1A603A4A1C3212688A43FA
:1008B000384B1C331A60027BCAB9364A0C321268B4
:1008C0008A43344B0C331A604288C38842EA03439C
:1008D000304A4032847A42F834300288838842EACF
:1008E00003432C4A4032847A02EBC4025360027BF9
:1008F000012A19D1274A0C3212680A43254B0C33BE
:100900001A604288038842EA0343224A4032847ACA
:1009100042F83430C288838842EA03431D4A403299
:10092000847A02EBC4025360C27A3AB9194A121DA2
:1009300012688A43174B1B1D1A6006E0154A121DE8
:1009400012680A43134B1B1D1A60028932B9114AFF
:10095000143212688A430F4B14331A600289012A39
:1009600006D10C4A143212680A430A4B14331A6037
:10097000427B012A06D1074A1C3212680A43054B02
:100980001C331A60034A126822F00102014B1A60FC
:1009900010BD0000006600407FB504460D461646B7
:1009A00000208DF80A008DF80B0001208DF80C0056
:1009B000C4F34F30ADF80000042000EBC40080B257
:1009C000ADF80200ADF80450ADF806600020ADF8B7
:1009D000080001208DF80D006846FFF759FF01223D
:1009E0000221024800F02CF87FBD000000640040A6
:1009F00008B50121052001F0EBFB0121480601F0BB
:100A0000C7FB4FF40060ADF8000048208DF80300EC
:100A100003208DF802006946084801F0E7F84FF41A
:100A20008050ADF8000018208DF8030003208DF8E9
:100A300002006946014801F0D9F808BD00080140EC
:100A40001AB143690B43436102E043698B4343613D
:100A5000704730B5024600200023146824F00204D9
:100A60001460146844F00104146000E05B1C5468D6
:100A700004F001041CB94FF6FF74A342F6D1546888
:100A800004F001040CB900206CE08C79012C04D135
:100A9000146844F08004146003E0146824F08004B7
:100AA0001460CC79012C04D1146844F04004146023
:100AB00003E0146824F0400414600C7A012C04D183
:100AC000146844F02004146003E0146824F0200447
:100AD00014604C7A012C04D1146844F010041460A2
:100AE00003E0146824F0100414608C7A012C04D103
:100AF000146844F00804146003E0146824F0080447
:100B00001460CC7A012C04D1146844F004041460FD
:100B100003E0146824F0040414608C78A407CD78F2
:100B200044EA05640D7944EA05444D7944EA0554E4
:100B30000D886D1E2C43D461146824F001041460E8
:100B4000002300E05B1C546804F001041CB14FF664
:100B5000FF74A342F6D1546804F001040CB10020E4
:100B600000E0012030BD00000EB51448FFF774FE10
:100B7000684600F0B3F900208DF8060001208DF8DA
:100B800007008DF8080000208DF809008DF80A0094
:100B90008DF80B008DF8020001208DF80300052070
:100BA0008DF8040002208DF805000420ADF8000047
:100BB00069460248FFF74DFF0EBD0000006400408B
:100BC00008B54FF4C06001F0D9FA14208DF8000088
:100BD00000208DF801008DF8020001208DF803003F
:100BE000684601F093FA08BD10B500F5D87303EB21
:100BF00001131B6803F004031372137A53B900F551
:100C0000D87303EB01131B6840F2FF7404EA5353DB
:100C1000136009E000F5D87303EB01131B686FF054
:100C2000604404EAD303536000F5D87303EB011367
:100C30001B6803F00203537200F5D87303EB011332
:100C40005B6803F00F03937200F5D87303EB011395
:100C50005B681B0AD37400F5D87303EB01139B6820
:100C6000D37200F5D87303EB01139B681C0A14734D
:100C700000F5D87303EB01139B681C0C547300F54B
:100C8000D87303EB01139B681B0E937300F5D873A5
:100C900003EB0113DB68D37300F5D87303EB011387
:100CA000DB681C0A147400F5D87303EB0113DB68CE
:100CB0001C0C547400F5D87303EB0113DB681B0E96
:100CC000937421B9C36843F02003C36003E0036950
:100CD00043F02003036110BD2DE9FC4781460D461A
:100CE00014460020019000905E48C0F80490042053
:100CF0005C49087200204872082C26DA0846847283
:100D00000020019008E015F8011B56480B30019AAD
:100D100081540198401C01900198A042F3D351499D
:100D2000514800F0EBF800900020019002E001989B
:100D3000401C01909DF800104B4800F073F9012809
:100D400002D00198FF28F2D189E008204549887235
:100D50000020019008E015F8011B42480B30019A71
:100D600081540198401C019001980828F3D33D4913
:100D70003D4800F0C3F800900020019002E0019887
:100D8000401C01909DF80010374800F04BF90128F5
:100D900002D00198FF28F2D12046E11704EB5171EF
:100DA000C1F3C708002758E0A8EB070002282FDA94
:100DB0002046E11704EB5171C910A4EBC101294A87
:100DC0009172002606E015F8011B26480B3081556C
:100DD000701CC6B2E11704EB5171C910A4EBC1013C
:100DE000B142F0DC1F49204800F088F80090002054
:100DF000019002E00198401C01909DF800101A48F3
:100E000000F010F9012826D00198FF28F2D122E045
:100E1000082014498872002606E015F8011B1148C5
:100E20000B308155701CC6B2082EF6DB0D490E48FA
:100E300000F064F800900020019002E00198401C4E
:100E400001909DF80010084800F0ECF8012802D04D
:100E50000198FF28F2D1781CC7B24745A4DBBDE852
:100E6000FC870000B8000020006400407CB5054607
:100E70000C4600200190009016484560042015495A
:100E8000087200204872082088720020019008E053
:100E900014F8011B0F480B30019A81540198401C33
:100EA000019001980828F3D30A490B4800F026F86E
:100EB00000900020019002E00198401C01909DF8F4
:100EC0000010054800F0AEF8012802D00198FF2874
:100ED000F2D17CBDB8000020006400400021817187
:100EE000C171017241728172C1728170C17003213E
:100EF00001710221417101210180704710B5024644
:100F00000020936803F08063B3F1806F00D110E09C
:100F1000936803F00063B3F1006F01D1012008E092
:100F2000936803F08053B3F1805F01D1022000E0A9
:100F30000420042874D002F5C07303EB00131B686F
:100F400003F0010402F5C07303EB00131C600B7A7D
:100F50007BB94B7A0C8843EA445302F5C07404EB26
:100F600000142468234302F5C07404EB00142360CA
:100F700010E00B7A4C6843EAC4034C7A234302F531
:100F8000C07404EB00142468234302F5C07404EB1E
:100F9000001423608B7A03F00F038B7202F5C07389
:100FA00003EB00135B6823F00F0402F5C07303EB3F
:100FB00000135C6002F5C07303EB00135B688C7A6E
:100FC000234302F5C07404EB001463608B7B1C06A2
:100FD0004B7B44EA03440B7B44EA0323CC7A234350
:100FE00002F5C07404EB0014A3608B7C1C064B7CE0
:100FF00044EA03440B7C44EA0323CC7B234302F5FD
:10100000C07404EB0014E36002F5C07303EB00133B
:101010001B6843F0010402F5C07303EB00131C606E
:1010200010BD000010B50246002321B1012907D0F0
:1010300002290FD109E090681D4C00EA04030BE07F
:1010400090681C4C00EA040306E090681A4C00EA21
:10105000040301E0002300BF00BF184C181BA3428B
:1010600016D007DC83B16FF08060184470B102289D
:1010700018D111E0B0F5007F10D0114C204448B1D8
:10108000B0F5003F0ED10BE002230DE000230BE092
:10109000002309E0002307E0012305E0012303E02A
:1010A000012301E0002300BF00BFD8B210BD000043
:1010B0000300000400030008000003100001000802
:1010C0000001FFF7F0B585B006460F461546062D20
:1010D00003DA50208DF8000002E055208DF8000062
:1010E000E81CC0B28DF801008DF80260002405E014
:1010F000395DE01C0DF80010601CC4B2AC42F7DB97
:101100009DF80120694603480088FFF7E5FD05B01A
:10111000F0BD00000400002038B505460C460094E0
:10112000BDF80000000240EA242080B200900222B4
:1011300069462846FFF7C6FF38BD00002DE9F04F8D
:101140008BB0FE480078012876D1002240F225516C
:10115000FB4801F0D2FF142000F0C0FFF9480078EE
:10116000502803D0F748007855287DD1F54890F8ED
:1011700002B00079F349C97840EA0124F148807946
:10118000F049497940EA01200A90BBF1150F6CD073
:101190000ADCBBF10B0F69D2DFE80BF01E2F4F68A2
:1011A0006868687881868C00BBF1230F73D009DCF6
:1011B000BBF1200F70D0BBF1210F6ED0BBF1220F1D
:1011C00054D1C6E0BBF1240F68D0BBF1250F70D01D
:1011D000BBF1FF0FF4D178E2DB480088A04203D0D6
:1011E0004FF6FF70844207D10A9800F075FBD6488D
:1011F00001880720FFF790FF72E2D3480088A042E1
:1012000002D0B4F5004F16D1D048007800F0CFFDE1
:101210000590FFF731F9CDE90601CD480CC80698D5
:10122000FFF749F8CDE908010DF1200A02225146E5
:101230000420FFF747FF53E25FE2C3480088A04263
:1012400002D0B4F5004F20D1C248007800F0AFFDC5
:101250000390FFF711F9CDE90401BD480CC80498CB
:10126000FFF729F8002202E03BE228E037E2BA4B20
:10127000CDE90601FFF791F8CDE908010DF1200A4B
:10128000022251460520FFF71DFF29E22146B3A0A7
:1012900002F016F924E276E01EE040E0D7E02146B5
:1012A000B0A002F00DF91BE22146B1A002F008F94E
:1012B00016E2F8E02146B1A002F002F910E2A248DD
:1012C0000088A04202D0B4F5004F04D19E480188A6
:1012D0000720FFF721FF03E29B480088A04202D0CD
:1012E000B4F5004F1AD11021A74800F05EFD4FF46D
:1012F0008071A54800F059FD4FF40071A34800F03B
:1013000052FD4FF48071A14800F04DFD8E480188D8
:101310000920FFF701FF02209D490870E0E18A489B
:101320000088A04202D0B4F5004F11D14FF40071F3
:10133000964800F03AFD4FF48071944800F033FD78
:10134000814801880820FFF7E7FE012090490870D6
:10135000C6E17D480088A04202D0B4F5004F11D10B
:101360004FF40071894800F020FD4FF480718748E8
:1013700000F01BFD744801880A20FFF7CDFE002015
:1013800083490870ACE170480088A04202D0B4F5EF
:10139000004F5BD17E480078012848D101027A488D
:1013A00000F001FD4FF4FA7000F0CCF969480078C4
:1013B00000F0FDFC0390FFF75FF8CDE904016448FD
:1013C0000CC80498FEF777FF0022724BCDE90601A6
:1013D000FEF7E3FFCDE908015B48008840F4A0294F
:1013E00008A94846FFF742FD00226B4BDDE90801E2
:1013F000FEF7D3FF0022694BCDE90601DDE90801C4
:10140000FEF7CBFFCDE90401DDE90601CDE90201DC
:10141000DDE90401CDE9000161A0DDE9082302F066
:101420004FF84FF48071584800F0BFFC0EE0584868
:10143000007802280AD100210891099142480088C9
:1014400040F4A02908A94846FFF710FD48E13E48AE
:101450000088A04202D0B4F5004F23D14C48007858
:1014600000BB01F0F9FFCDE9080100224B4BDDE99B
:101470000801FEF792FF0022474BCDE90601DDE9A6
:101480000801FEF78AFFCDE90401DDE90801CDE995
:101490000201DDE90601CDE9000147A0DDE90423F1
:1014A00002F00EF81CE128480088A04202D0B4F5F2
:1014B000004F42D136480078F0BB1021324800F08E
:1014C00072FC4FF4FA7000F03DF92048007800F00B
:1014D0006EFC0790FEF7D0FF07468846502000F0CC
:1014E00066FC0790FEF7C8FF05460E462A463346BF
:1014F00038464146FEF7D9FECDE9040114480CC830
:101500000498FEF7D8FECDE9060132480CC80698CB
:10151000FEF7CBFECDE908010B48008840F4802996
:1015200008A94846FFF7A2FC00221B4BDDE9080191
:10153000FEF733FF00224FE069E0C5E00200002023
:1015400000380140A4000020040000200700002013
:1015500010000020060000200000244049443D25E2
:10156000580A000049443D2558202B200A0000005D
:1015700049443D2558202D200A00000049443D25BE
:1015800058203D200A00000000080140000C0140E6
:10159000080000200000144080842E4100408F404D
:1015A000254C6675412C20254C666D412C20254C20
:1015B00066410D0A0000000076252E394C66762C17
:1015C000206D252E364C666D2C2075252E334C66ED
:1015D000750D0A0018000020494BCDE90601DDE930
:1015E0000801FEF7DAFECDE90401DDE90601CDE9E7
:1015F0000201DDE90401CDE9000142A0DDE9082393
:1016000001F05EFF1021454800F0CFFB5CE044484C
:101610000078012849D10102404800F0C4FB4FF492
:10162000FA7000F08FF83F48007800F0C0FB03909C
:10163000FEF722FFCDE904013B480CC80498FEF7F1
:101640003AFE0022394BCDE90601FEF7A6FECDE9B0
:1016500008013748008840F4A02908A94846FFF748
:1016600005FC0022334BDDE90801FEF796FE00225F
:10167000234BCDE90601DDE90801FEF78EFECDE939
:101680000401DDE90601CDE90201DDE90401CDE94E
:101690000001AFF2F400DDE9082301F011FF4FF47F
:1016A00080711E4800F081FB0EE01D480078022882
:1016B0000AD10021089109911D48008840F4A02911
:1016C00008A94846FFF7D2FB0AE019480088A04263
:1016D00002D0B4F5004F01D100F0CCFF00E000BF14
:1016E00000BF002014490870142000F003FD0122FF
:1016F00040F22551114801F000FD0BB0BDE8F08F1C
:1017000000408F40254C6675562C20254C666D5642
:101710002C20254C66560D0A0000000000080140F0
:1017200008000020060000201000002000001440E7
:101730000400002080842E41020000200038014077
:101740007047000001461B4A12681B4BB2FBF3F2C4
:101750001A4B1A701A46127802EB4203C3EBC212FC
:101760004FF6FF7303EAC202154B1A801A4612881D
:101770004A434FF0E0235A6100229A611A461269E7
:1017800042F001021A6100BF4FF0E022106900F040
:1017900001021AB100F48032002AF5D04FF0E022A5
:1017A000126922F001024FF0E0231A6100229A61CF
:1017B000704700005C00002000127A0056000020F4
:1017C0005800002030B5044604254FF4302000F0C6
:1017D0006FF80546042D17D10C48006940F002004F
:1017E0000A49086108464461006940F04000086108
:1017F0004FF4302000F05CF805460448006941F6DB
:10180000FD71084001490861284630BD00200240B2
:1018100004200B49C96801F0010109B101200EE063
:101820000749C96801F0040109B1022007E0044931
:10183000C96801F0100109B1032000E004207047DD
:10184000002002400348006940F08000014908611F
:10185000704700000020024070B504460D46042683
:10186000F00200F025F80646042E11D1094800695F
:1018700040F00100074908612580F00200F018F8E7
:1018800006460448006941F6FE71084001490861B6
:10189000304670BD002002400248034948600348BA
:1018A000486070472301674500200240AB89EFCDB7
:1018B00000B502460423FFF7ABFF034603E0FFF742
:1018C000A7FF0346521E012B01D1002AF7D102B90E
:1018D0000523184600BD000038B50446E0B28DF877
:1018E0000100200A8DF8000001226946034800F03B
:1018F000A7FD03480480FEF793FF38BD00FC0008F5
:101900000400002008B50121042000F061FC4FF420
:101910008870ADF8000010208DF8030003208DF8CA
:10192000020069460F4800F061F94FF488710D48D4
:1019300000F03BFA0121082000F04AFC4FF440700F
:10194000ADF8000010208DF8030003208DF8020090
:101950006946054800F04AF94FF44071024800F02A
:1019600024FA08BD00080140000C01402DE9F047B1
:10197000A6B0602000F01BFA2490702000F017FA47
:101980002590502000F013FA0A2190FBF1F400207A
:1019900000F00DFA0746FEF76FFD05460022834B67
:1019A000FEF7FBFCCDE92001002000F000FA07461D
:1019B000FEF762FD054600227C4BFEF7EEFCCDE90A
:1019C0001C01002000F0F3F90746FEF755FD05461F
:1019D0000022764BFEF7E1FCCDE91801002000F073
:1019E000E6F90746FEF748FD054600226F4BFEF775
:1019F000D4FCCDE91401002000F0D9F90746FEF728
:101A00003BFD05460022694BFEF7C7FCCDE91001FE
:101A1000002000F0CCF90746FEF72EFD0546002217
:101A2000624BFEF7BAFCCDE90C01002000F0BFF9D3
:101A30000746FEF721FD054600225C4BFEF7ADFC94
:101A4000CDE90801002000F0B2F90746FEF714FDC9
:101A500005460022554BFEF7A0FCCDE9040100200D
:101A600000F0A5F90190FEF707FD074600224F4B55
:101A7000FEF793FC05460E46002000F098F9019011
:101A8000FEF7FAFC07460022484BFEF786FC2A4682
:101A90003346CDE90201FEF767FB8146DDE9042309
:101AA000FEF762FBCDE90601DDE90823FEF75CFBEA
:101AB000CDE90A01DDE90C23FEF756FBCDE90E0165
:101AC000DDE91023FEF750FBCDE91201DDE9142317
:101AD000FEF74AFBCDE91601DDE91823FEF744FBCA
:101AE000CDE91A01DDE91C23FEF73EFBCDE91E011D
:101AF000DDE92023FEF738FBCDE922012346CDF8AE
:101B000000B02BA0DDE9241201F0DAFC2046FEF73C
:101B1000B3FC07462B480CC83846FEF7CCFB0546FD
:101B20000022294BFEF739FCCDE9200125480CC8DD
:101B3000DDE92201FEF7BFFB05460022224BFEF73E
:101B40002CFC81468A462598FEF796FC07461D48E0
:101B50000CC83846FEF7AFFB054600221B4BFEF7CC
:101B60001CFCCDE91E012498FEF786FC07461548AB
:101B70000CC83846FEF79FFB05460022134BFEF7C4
:101B80000CFCCDE91C01DDE92001CDE9029ACDE98B
:101B90000401DDE91E01CDE900010DA0DDE91C23F2
:101BA00001F08EFC26B0BDE8F08700000000244064
:101BB00025642C2025642C2025642C2025640D0A06
:101BC000000000001000002000408F4080842E4163
:101BD000254C66562C20254C66562C20254C666DCF
:101BE000562C20254C666D560D0A00002DE9F0415B
:101BF000024600250026002000230024002791F83B
:101C000003C00CF00F0591F803C00CF0100CBCF1F0
:101C1000000F03D091F802C04CEA050591F800C00E
:101C2000BCF1000F31D0146800202BE04FF0010C04
:101C30000CFA00F3B1F800C00CEA03069E4220D172
:101C400083004FF00F0C0CFA03F7BC4305FA03FCBA
:101C50004CEA040491F803C0BCF1280F06D14FF000
:101C6000010C0CFA00FCC2F814C00AE091F803C0A1
:101C7000BCF1480F05D14FF0010C0CFA00FCC2F882
:101C800010C0401C0828D1D31460B1F800C0BCF1CA
:101C9000FF0F34DD546800202EE000F1080C4FF0F7
:101CA000010808FA0CF3B1F800C00CEA03069E42E2
:101CB00021D183004FF00F0C0CFA03F7BC4305FA57
:101CC00003FC4CEA040491F803C0BCF1280F05D1D1
:101CD00000F1080C08FA0CF8C2F8148091F803C05F
:101CE000BCF1480F07D100F1080C4FF0010808FAC9
:101CF0000CF8C2F81080401C0828CED35460BDE810
:101D0000F0810000F0B50A460023002400210025E0
:101D100000F00046B6F1004F02D11D4EF16901E01E
:101D20001B4E7168C0F3034583B200F44016B6F54C
:101D3000401F08D121F07061154E766826F070665C
:101D4000134F7E6012E000F48016B6F5801F06D1B6
:101D5000032606FA05F4A14341F0706106E0460D42
:101D6000360103FA06F6B14341F0706122B1460D27
:101D7000360103FA06F6314300F00046B6F1004F93
:101D800002D1034EF16101E0014E7160F0BD00002F
:101D9000000001400246002093680B400BB1012077
:101DA00000E000207047416170470161704770B5E5
:101DB000054645F00800FEF728FD044645F00800FA
:101DC000FEF723FD044604F4000020B1E443C4F30D
:101DD0001604641C6442204670BD000070B586B0D5
:101DE00014A2D2E900109268CDE90402039114A272
:101DF00007CA8DE8070003A9144A1278895C144BBE
:101E00001B781DF8032041EA0200FEF7FEFC0446A1
:101E100004F4000020B1E443C4F31604641C6442DB
:101E20002046FEF729FB05460E462846314606B0F9
:101E300070BD000000102030405060708000000035
:101E400000010203040506070800000052000020FC
:101E5000530000202DE9F14F98B000260AE01898B1
:101E6000FFF7A5FF0746FEF707FB6A4602EBC6022F
:101E700003C2761C0C2EF2DB4FF0000B31E04FF06A
:101E8000000A28E0684600EBCA006946D0E9006312
:101E90000AF1010001EBC0003246D0E90081404662
:101EA000FEF71AFB15D2684600EBCA0030C8694637
:101EB0000AF1010001EBC000D0E900106A4602EB14
:101EC000CA02C2E9001069460AF1010001EBC00034
:101ED00030C00AF1010ACBF10B005045D2DC0BF106
:101EE000010BBBF10B0FCADBDDE902454FF0000A25
:101EF00015E069460AF1020001EBC000D0E9006379
:101F0000324620462946FEF72FF9804600224FF040
:101F10008043FEF742FA04460D460AF1010ABAF17F
:101F2000090FE6DB2046294619B0BDE8F08F2DE900
:101F3000F34F87B08B460798584400F0FF0ACDF85E
:101F400014A0DDF814A04FEACA0002F013F804460A
:101F5000FEF746FC4FF0000908E0FFF73FFFFFF7F0
:101F60003DFF04EBC90203C209F10109D145F4DBCD
:101F7000002004902EE04FF0000922E004EBC9019C
:101F800003C9CDE9020109F1010004EBC00103C955
:101F9000CDE90001DDE90223FEF79EFA0FD204EB42
:101FA000C90060C809F1010004EBC00103C904EBDA
:101FB000C90203C209F1010004EBC00060C009F1CD
:101FC0000109AAF101000499401A4845D6DC049899
:101FD000401C0490AAF1010004998842CBDC04EB78
:101FE000CB0060C84FF0000916E009EB0B00401C65
:101FF00004EBC00103C92A463346CDE90001FEF7D0
:10200000B3F800224FF08043CDE90201FEF7C5F995
:1020100005460E4609F101090798401E4845E4DCD3
:102020002F46B046204601F0D7FE3846414609B05B
:10203000BDE8F08F00BFFEE708B50121082000F0E1
:10204000C7F84FF40060ADF8000010208DF80300D1
:1020500003208DF8020069460C48FFF7C7FD4FF4D6
:1020600000610A48FFF79FFE4FF48060ADF8000062
:1020700048208DF8030003208DF8020069460348CC
:10208000FFF7B4FD00F01EF908BD0000000C014090
:1020900008B50121052000F09BF801210B48FFF74E
:1020A00031FE4FF40040ADF8000010208DF8030021
:1020B00003208DF8020069460548FFF797FD4FF4AD
:1020C00000410348FFF771FE08BD00000002300028
:1020D0000008014000BFFEE77047000000F01F024B
:1020E00001219140024A430942F823107047000041
:1020F00080E100E000F01F020121914042099200BE
:1021000002F1E022C2F800117047000070B5002112
:1021100000230F22C47804B3154C246804F4E0644F
:10212000C4F5E064210AC1F10403CA40447804FA0A
:1021300003F184781440214309010E4C0678A1551F
:10214000047804F01F050124AC4005786D11AD0042
:1021500005F1E025C5F8004109E0047804F01F0509
:102160000124AC40044D0678761145F8264070BD38
:102170000CED00E000E400E080E100E002490143F2
:10218000024A1160704700000000FA050CED00E003
:1021900029B1064AD2690243044BDA6104E0034ADA
:1021A000D2698243014BDA6170470000001002409F
:1021B00029B1064A12690243044B1A6104E0034A3A
:1021C00012698243014B1A617047000000100240FF
:1021D00029B1064A92690243044B9A6104E0034A1A
:1021E00092698243014B9A617047000000100240DF
:1021F00030B500210022002400232D4D6D6805F02C
:102200000C0121B1042905D0082923D105E0294D6D
:10221000056022E0274D05601FE0254D6D6805F43F
:102220007012234D6D6805F48034022505EB92424F
:102230001CB9214D554305600BE01D4D6D6805F43B
:1022400000351DB11C4D5543056002E0194D554345
:10225000056002E0174D056000BF00BF144D6D68BA
:1022600005F0F0010909154D6B5C0568DD4045601E
:102270000F4D6D6805F4E061090A104D6B5C45680F
:10228000DD4085600A4D6D6805F46051C90A0B4D4B
:102290006B5C4568DD40C560054D6D6805F44041E7
:1022A000890B074D6B5CC568B5FBF3F5056130BD67
:1022B0000010024000127A0000093D00700000206A
:1022C0008000002000B587B001210820FFF780FFC3
:1022D00001218803FFF75CFF4FF46040ADF8040074
:1022E00003208DF8060018208DF8070001A91D486D
:1022F000FFF77CFC4FF48050ADF8040003208DF80C
:10230000060010208DF8070001A91648FFF76EFCA3
:102310004FF480511348FFF748FD0020ADF8080046
:102320004FF48270ADF80A000020ADF80C00ADF853
:102330000E000120ADF810004002ADF81200382068
:10234000ADF814000020ADF816000720ADF8180015
:1023500002A9054800F024F80121034800F006F81E
:1023600007B000BD000C01400038004021B10288D8
:1023700042F04002028004E002884FF6BF731A4028
:10238000028070470246002013890B400BB10120E8
:1023900000E00020704701468889704781817047BE
:1023A00010B50022028802F441520B884C88234366
:1023B0008C882343CC8823430C8923434C892343B3
:1023C0008C892343CC8923431A430280838B4FF2A9
:1023D000FF74234083830B8A038210BD70B50446CB
:1023E000002500BF02210B48FFF7CCFF0028F9D0E1
:1023F00021460848FFF7D2FF00BF01210548FFF73B
:10240000C1FF0028F9D00348FFF7C5FFC5B2284631
:1024100070BD00000038004030B503460C4615463C
:10242000002207E0184600F008F824F812009B1C70
:10243000501C82B2AA42F5DB30BD014608887047C5
:102440002DE9F05F80468A461746B8F1006F02D347
:102450003348804501D3BDE8F09FFFF71DFAA8F18E
:10246000006B4FEA9B25CBF34809C9F50074A742DE
:1024700000DC3C464DE04FF0006101EB85208A1402
:102480002849FFF7C9FF00260BE009EB06002549A4
:1024900031F810004FF6FF71884200D003E0701C45
:1024A00086B2A642F1DB00BFA6421BDA4FF0006104
:1024B00001EB8520FFF786F9002608E03AF81600C0
:1024C00006EB0901174A22F81100701C86B2A642D9
:1024D000F4DB4FF0006101EB85208A14114900F014
:1024E00023F804E022465146404600F01DF8A7427A
:1024F00000D10FE06D1C4FF000090AEB440AA04424
:10250000381B87B2B7F5007F02DD4FF4007400E09E
:102510003C46B0E700BFFFF795F900BF9BE700001E
:1025200000000108E00000202DE9F04105460E46BC
:102530001746002407E036F814102846FFF78CF9F8
:10254000AD1C601C84B2BC42F5DBBDE8F081704775
:102550000CB50AA10968019109A1096800910178E7
:10256000C1F1FF0101AA515C064A11704178C1F125
:10257000FF011DF80110044A11700CBD30405000DD
:1025800000102000070000200600002010B500F019
:1025900001F810BD0CB50020019000903348006890
:1025A00040F480303149086000BF3048006800F4D2
:1025B000003000900198401C0190009818B90198D3
:1025C000B0F5A06FF1D12948006800F4003010B1D7
:1025D0000120009001E0002000900098012843D1E4
:1025E0002348006840F01000214908600846006850
:1025F00020F0030008600846006840F00200086010
:102600001A484068194948600846406848600846CA
:10261000406840F4806048600846406820F47C10C0
:1026200048600846406840F4E81048600846006882
:1026300040F08070086000BF0C48006800F0007037
:102640000028F9D00948406820F003000749486095
:102650000846406840F00200486000BF03484068F8
:1026600000F00C000828F9D10CBD00000010024059
:1026700000200240012080F3138800BF00BF0748FC
:10268000006800F4E06006490843001D0349086043
:10269000BFF34F8F00BF00BFFEE700000CED00E06E
:1026A0000000FA0510B51348006840F00100114918
:1026B000086008464068104908400E4948600846CE
:1026C00000680E4908400B4908600846006820F47D
:1026D000802008600846406820F4FE0048604FF4FF
:1026E0001F008860FFF752FF4FF000600449086048
:1026F00010BD0000001002400000FFF8FFFFF6FED2
:1027000008ED00E02DE9F04F87B07020FFF74FFB98
:102710008046FDF7B1FE064632460B4600201D49B5
:10272000FDF73BFE1C4A03C24020FFF740FB064674
:10273000FDF7A2FE82468B465020FFF738FB064687
:10274000FDF79AFECDE9040150465946DDE9042320
:10275000FDF7ABFD064610480CC83046FDF7ABFD53
:1027600004460D4600220D4B20462946FDF715FE76
:1027700006460F4600220A4B20462946FDF70DFE6D
:1027800022462B468DE8C30006A000F099FE07B054
:10279000BDE8F08FD01243411000002080842E410C
:1027A00000408F40254C6675562C20254C666D5692
:1027B0002C20254C66560D0A0000000010B504467A
:1027C0002146054800F02FFD00BF4021024800F0DF
:1027D0005DFC0028F9D010BD0038014010B586B06E
:1027E000044601210420FFF7F3FC01218803FFF7D1
:1027F000EFFC4FF40070ADF8140018208DF81700AE
:1028000003208DF8160005A92148FFF7EFF94FF4D2
:102810008060ADF8140004208DF8170005A91C484D
:10282000FFF7E4F901940020ADF80800ADF80A00C4
:10283000ADF80C00ADF810000C20ADF80E0001A9A9
:10284000144800F07FFC012240F22441114800F0BE
:1028500054FC012240F225510E4800F04EFC0121AB
:102860000C4800F007FC4FF4E060FFF787FC2520E0
:102870008DF8000000208DF8010001208DF8020085
:102880008DF803006846FFF741FC06B010BD00005C
:10289000000801400038014070B500BF40F22551EA
:1028A000174800F000FCC0B11648007840B9002479
:1028B00004E0002014490855601CC4B2142CF8DB55
:1028C0000F4800F0ABFCC1B20E4802780078401C03
:1028D0000C4B18700C48815411E040F22441084818
:1028E00000F0E1FB58B106480088C5B20448001D5D
:1028F0000088C5B201200549087000F009F870BDD4
:10290000003801400100002090000020000000205D
:102910002DE9F04F8DB0FE480078012873D11420C6
:1029200001218140FB4A430942F8231000BF0022E5
:1029300040F22551F84800F0E0FBF8480078AA285A
:1029400076D1F64890F802B0BBF1180F71D010DCC8
:10295000BBF1180F6ED2DFE80BF0373E464E576DD5
:102960006D6D6D6D6D6D6D6D6D6D6D5A6E9CDAFC7E
:10297000FBFABBF1250F7DD014DCBBF1220F7AD01E
:1029800009DCBBF1190F77D0BBF1200F75D0BBF17B
:10299000210F4FD161E2BBF1230F6FD0BBF1240FA8
:1029A000F7D172E2BBF1660F69D006DCBBF1300FE4
:1029B00066D0BBF1310FECD1C0E2BBF1EE0F7DD0A0
:1029C000BBF1FF0FE5D10FE30422D449C91C00205D
:1029D000FEF778FB12E30222D049C91CD0480088D8
:1029E000FEF77AF90AE30222CC49C91CCC480088D8
:1029F000FEF772F902E30222C849C91CC8480088E0
:102A0000FEF76AF9FAE210E3FEF7B0FFF6E2C34818
:102A10000079C249C97840EA0120C14908800846C6
:102A20000088FEF759FFBE48008800F000FCE5E290
:102A3000E5E20EE1E1E24FF4FA70FEF783FE00F00A
:102A40000BFDCDE90A010022B64BDDE90A01FDF7D5
:102A5000A4FC0022B44BCDE90601DDE90A01FDF733
:102A60009CFCCDE90401DDE90A01CDE90201DDE9C3
:102A7000060106E00FE2F9E115E1E5E1FFE1B9E267
:102A80000FE2CDE90001A9A0DDE9042300F018FD63
:102A9000B4E24FF48071AC48FFF785F94FF47A70D7
:102AA000FEF750FE0020FFF782F90390FDF7E4FCEB
:102AB000CDE90401A5480CC8049800E091E2FDF7B7
:102AC000FAFB0022A24BCDE90601FDF766FCCDE939
:102AD0000A010022944BDDE90A01FDF75EFC0022A9
:102AE000904BCDE90601DDE90A01FDF756FCCDE981
:102AF0000401DDE90601CDE90201DDE90401CDE9CA
:102B0000000194A0DDE90A2300F0DAFC76E27020EF
:102B1000FFF74DF90590FDF7AFFCCDE906018B48B5
:102B20000CC80698FDF7C7FBCDE90A0100227E4BD1
:102B3000DDE90A01FDF731FC00227A4BCDE90601FF
:102B4000DDE90A01FDF729FCCDE9040102E06EE0B0
:102B500041E039E0DDE90601CDE90201DDE90401EA
:102B6000CDE9000181A0DDE90A2300F0A9FC602085
:102B7000FFF71DF90590FDF77FFCCDE906017348CD
:102B80000CC80698FDF797FBCDE90A010022664BB9
:102B9000DDE90A01FDF701FC0022624BCDE90601E7
:102BA000DDE90A01FDF7F9FBCDE90401DDE90601E4
:102BB000CDE90201DDE90401CDE9000172A0DDE902
:102BC0000A2300F07DFC19E202225449C91C152099
:102BD000FEF778FA12E251480079C0F1FF004F4940
:102BE000C978C1F1FF0140EA012909F0FF008DF821
:102BF00025004FEA19208DF8240009A8FFF7A8FC4A
:102C0000012209A96748FFF71BFCAA20FFF7D6FDA0
:102C10000520FFF7D3FD1620FFF7D0FD3F49C87808
:102C2000FFF7CCFD3D490879FFF7C8FDE6E1DFF885
:102C30001CA1002005E0C11C384A515C0AF80010B4
:102C4000401C0828F7DB41480CC857A000F038FCAE
:102C5000D4E17020FFF7FEF802460B46CDE90601ED
:102C600000205649FDF799FB384A03C27020FFF750
:102C70009EF80190FDF700FCCDE9020133480CC835
:102C80000298FDF718FB0022274BCDE90401FDF760
:102C900084FBCDE90601CDE900012C480CC848A011
:102CA00000F00EFCAAE10DF1280A002005E0C11C8D
:102CB0001A4A515C0AF80010401C0828F7DB002271
:102CC000194BDDE90A01FDF768FB0022154BCDE940
:102CD0000601DDE90A01FDF760FBCDE90401DDE94C
:102CE0000601CDE90201DDE90401CDE900013DA0C5
:102CF000DDE90A2300F0E4FB40480078FFF757F8CD
:102D00000590FDF7B9FB02460B46CDE9060177E0D9
:102D10000000002080E100E0003801409000002029
:102D20000400002000408F4080842E4176252E39FB
:102D30004C66762C206D252E364C666D2C20752524
:102D40002E334C66750D0A0000080140100000206B
:102D500000001440254C6675412C20254C666D41C1
:102D60002C20254C66410D0A0000000056322E35FD
:102D7000203D20254C6675562C20254C666D562C22
:102D800020254C66560D0A0056474E44203D20250E
:102D90004C6675562C20254C666D562C20254C66AD
:102DA000560D0A0002FC0008566F6C5261746520D3
:102DB0003D2025322E31354C660D0A00D01243419C
:102DC000566F6C52617465203D2025322E31304C97
:102DD000662C2056322E35203D20254C66560D0A95
:102DE00000000000254C6675562C20254C666D565B
:102DF0002C20254C66560D0A00000000070000201C
:102E0000DDE90A01FDF7C9FA894A03C27020FEF71D
:102E1000CEFF0190FDF730FBCDE9020184480CC8DC
:102E20000298FDF748FA0022824BCDE90401FDF734
:102E3000B4FACDE90601CDE900017D480CC8AFF236
:102E4000800000F03DFBD9E002227B492020FEF704
:102E500039F9022079490870D0E002227649212010
:102E6000FEF730F9012075490870C7E00222724967
:102E70002220FEF727F9002070490870BEE00222E8
:102E80006D492320FEF71EF9B8E002226A4924208A
:102E9000FEF718F9B2E0022267492520FEF712F981
:102EA000ACE0634C00216648CDE90A106548007823
:102EB000FEF77DFF0890FDF7DFFA05460E4650202D
:102EC000FEF775FF0890FDF7D7FA074688463A46A1
:102ED000434628463146FDF7E8F9CDE906015A4850
:102EE0000CC8DDE90A01FDF73FF9CDE90401DDE990
:102EF0000623FDF752FA224603C204222146534814
:102F0000FFF79EFA3A46434628463146FDF7CDF98B
:102F1000CDE9040120460CC80498FDF7CCF9CDE9B1
:102F2000060149480CC80698FDF7BFF9CDE90A012A
:102F300020460CC846A000F0C3FA5FE00AAC0020AF
:102F40000DE0C11C3C4AD21E525C011D3A4BDB1EF7
:102F5000595C42EA0129A4F80090A41C801C0828AE
:102F6000EFDBA4F10801042238480830FFF768FAC3
:102F7000354ADDE90A0103C23A464346284631464E
:102F8000FDF793F9CDE9040129480CC80498FDF731
:102F900092F9CDE906012C480CC80698FDF785F991
:102FA000CDE90A010022234BDDE90A01FDF7F5F91D
:102FB00000222C4BCDE90601DDE90A01FDF7EDF910
:102FC000CDE90401DDE90601CDE90201DDE90401F5
:102FD000CDE90001AFF2F410DDE90A2300F070FA48
:102FE0000CE0FFF747FB09E002221349FF20FEF740
:102FF00069F803E0FFF786FB00E000BF00BF002098
:103000001949087019490870012240F225511848E1
:1030100000F073F81420012181404209920002F16E
:10302000E022C2F8001100BF00BF0DB0BDE8F08F74
:103030001000002080842E41930000200800002012
:10304000D0124341070000201800002004FC0008B3
:10305000566F6C52617465203D20254C6675560D87
:103060000A00000000408F40000000200100002006
:103070000038014021B1828942F40052828104E08B
:1030800082894DF6FF731A40828170470246002004
:10309000B1F5007F00D100BF13880B400BB10120B8
:1030A00000E00020704770B5024600240023002590
:1030B000002040F66A16B14200D100BFC1F34215AC
:1030C00001F01F03012606FA03F3012D02D19689B0
:1030D000334006E0022D02D1168A334001E0968A81
:1030E00033400C12012606FA04F41688344013B15A
:1030F0000CB1012000E0002070BDF0B503460024B3
:1031000000260025002040F66A17B94200D100BF12
:103110001846C1F3421401F01F06012707FA06F50D
:10312000012C01D10C3004E0022C01D1103000E060
:1031300014301AB107682F43076002E00768AF43F5
:103140000760F0BD2DE9F04786B005460E46002425
:10315000A24600BFA1460027B08900B100BF2F469C
:103160002C8A4CF6FF700440F08804432C82AC8912
:103170004EF6F3100440B088318908437189084342
:103180000443AC81AC8A4FF6FF400440B08904434D
:10319000AC8201A8FFF72CF81F48874202D1DDF866
:1031A00010A001E0DDF80CA0A88900F4004040B1B7
:1031B0000AEBCA0000EB0A1031684900B0FBF1F8D5
:1031C00007E00AEBCA0000EB0A1031688900B0FB87
:1031D000F1F86420B8FBF0F004012009642101FB40
:1031E0001089A88900F4004040B1322000EBC900EA
:1031F000B0FBF1F000F00700044308E0322000EBE0
:1032000009106421B0FBF1F000F00F0004432C81A1
:1032100006B0BDE8F087000000380140014688880C
:10322000C0F308007047C1F308028280704710B5F0
:103230000446AA20FFF7C2FA0520FFF7BFFA0720CD
:10324000FFF7BCFA2012FFF7B9FAE0B2FFF7B6FABF
:1032500010BD00002DE9FC410024002600270021BC
:103260006C48CDE900101420FEF738FF6A4A0021AF
:103270006A48FDF7B9FC6A480078002875D16648AD
:103280004068C0F30746042E18D16348808887B28F
:103290006D4600BF06E060480B30005D28706D1C75
:1032A000601CC4B2082CF6DB39465EA0DDE90023C1
:1032B00000F006F91420FEF71DFFA6E0052E18D138
:1032C0005548808887B26D46002406E052480B308E
:1032D000005D28706D1C601CC4B2082CF6DB3946FA
:1032E00055A0DDE9002300F0EBF81420FEF702FF03
:1032F0008BE04948C07A502813D1002406E04648A4
:103300000B30005D51490855601CC4B24248807AB8
:10331000A042F4DC01204E490870002040490870AA
:1033200073E03D48C07A552820D1002048490870F4
:1033300000240BE038480B30005D444908553848FC
:103340000078401C36490870601CC4B23248807A4C
:10335000A042EFDC30494FF6FF7248681146FDF796
:103360001BFB1420FEF7C6FE4FE00AE000203849A0
:1033700008702B490870FDF753FA1420FEF7BAFEC7
:1033800043E03248007855283FD12548007800B303
:1033900000240CE020480B30015D214802780078C1
:1033A000401C1F4B187029488154601CC4B21A4835
:1033B000807AA042EEDC2548407819490978884295
:1033C00008D1012022490870002015490870FDF736
:1033D00027FA1AE01D4840781149097888420ADD29
:1033E0000D494FF6FF7248681146FDF7D5FA1420D3
:1033F000FEF780FE09E000201549087008490870B2
:10340000FDF70EFA1420FEF775FEFDF797FEBDE8F6
:10341000FC810000D012E33FCC000020006400409B
:103420000300002049443D255820446174613D2536
:103430004C6675560A00000049443D2558204461F9
:1034400074613D254C6675410A000000A40000200F
:103450000200002000BFFEE72DE9F84FFEF7BEFC9A
:103460001248017812480078FEF761FD0446FDF726
:1034700014F800900098FCF7FFFF80460D480CC838
:103480004046FCF712FF06460B480CC83046FCF7D6
:1034900012FF044609480CC82046FCF706FF824686
:1034A0008B4650465946BDE8F88F00005500002075
:1034B0005400002040000020380000204800002078
:1034C0000FB4054B10B503A9044A029800F0DAF8CE
:1034D00010BC5DF814FB0000B53D0008840000201E
:1034E00002E008C8121F08C1002AFAD170477047CD
:1034F000002001E001C1121F002AFBD1704700002B
:103500002DE9FF5F82B00021DDE90430020DDDF816
:1035100040B0034318D044F61050A2F2FF324243A9
:103520001514119801281FD0A5EB0B00401C5FEA71
:10353000000A4FF000064E4FDFF83891B046504673
:1035400015D5CAF1000413E0119801244AA30128FB
:1035500001D16FEA0B010298119AC0E90031C0E96C
:10356000024206B0BDE8F09FCBF10000DFE7044661
:103570000021404A491842EB0450CDE9001012E006
:10358000E00707D032463B4640464946FCF793FEEB
:103590008046894632463B4610461946FCF78BFE6C
:1035A00006460F466410002CEAD1DDE90401DDE98E
:1035B0000023BAF1000F06DAFCF77DFE42464B46C7
:1035C000FCF779FE05E0FCF7E8FE42464B46FCF7C7
:1035D000E4FE04460E460022284BFDF783F803D88C
:1035E0004FF0FF30014607E00022254B20463146D0
:1035F000FCF7BAFDFDF75DF8102409E0002C0ADBAA
:103600000A220023FCF796FF039B30321A55641EF2
:1036100050EA0102F2D1641C039AC4F1110314446C
:10362000119A012A03D0012208430DD10AE0084370
:1036300004D000204FF0110B119072E7A3EB0B05A3
:103640006D1E0DE05B4504DD4FF0000205F1010544
:1036500004E003DA4FF00002A5F10105002AECD0E6
:1036600002981199C0E90231C0E9004579E70000EC
:10367000000014400000F03F300000000000F04364
:103680000000E03F2DE9FF4F95B09B468946064676
:1036900000250FE2252877D100242746F84A01218A
:1036A000059400E0044316F8013F203B01FA03F0C3
:1036B0001042F7D130782A2811D06FF02F033078DC
:1036C000A0F13002092A16D8059A44F0020402EB50
:1036D000820203EB42021044761C0590EFE759F892
:1036E000042B0592002A03DA504244F4005405905A
:1036F00044F00204761C30782E2816D116F8010FFB
:1037000044F004042A280DD06FF02F023078A0F185
:103710003003092B09D807EB870302EB4303C718D3
:10372000761CF3E759F8047B761C30786C280FD0B0
:1037300006DC4C2817D068280DD06A2814D104E084
:10374000742810D07A280FD10DE044F400140AE058
:1037500044F4801401E044F440147278824202D1AF
:1037600004F58014761C761C307866280BD013DCA8
:10377000582877D009DC002875D04528F6D046288F
:10378000F4D047281AD19DE118E0632835D0642889
:1037900079D0652812D195E1702873D008DC6728AC
:1037A000F1D069286FD06E280DD06F2806D1B5E012
:1037B00073282CD0752875D0782874D05A4617995C
:1037C00090476D1C75E1C4F30250022809D003280C
:1037D0000DD0D9F8001004280DD00D6009F10409AE
:1037E00067E1D9F80010EA17C1E90052F6E7D9F805
:1037F00000100D80F2E70D70F0E719F8041B8DF84A
:10380000001000208DF80100EA46012003E059F87D
:1038100004AB4FF0FF3061074FF0000102D40DE020
:1038200008F101018846B9420FDA8045F8DB1AF841
:1038300008100029F4D108E008F10101884681420E
:10384000FADB1AF808100029F6D105985B46A0EBC0
:10385000080721463846179A00F094FA284400EBEE
:10386000080507E04DE029E10DE01AF8010B5A4682
:1038700017999047B8F10108F7D25B4621463846C0
:10388000179A13E142E00A220092C4F302524FF069
:10389000000A022A08D059F804CB032A4FEAEC7137
:1038A0000AD00DE029E02AE009F1070121F0070222
:1038B000F2E802C1914609E00FFA8CFC4FEAEC7184
:1038C000042A03D14FFA8CFC4FEAEC71002907DA85
:1038D0000A460021DCF1000C61EB02012D2202E01E
:1038E000220504D52B228DF80420012203E0E207F3
:1038F00001D02022F7E7904659E00A2102E0102289
:103900000DE010214FF0000A00910BE010224FF063
:10391000000A44F004040827009203E008224FF054
:10392000000A0092C4F30252022A05D059F804CBCF
:103930000021032A08D009E009F1070121F007025C
:10394000F2E802C1914605E01FFA8CFC042A01D17D
:103950000CF0FF0C4FF00008220728D5702806D085
:10396000009B83F0100353EA0A0305D00EE04022C7
:103970008DF80420012208E05CEA010206D0302222
:103980008DF804208DF8050002229046009B83F0FC
:10399000080353EA0A030AD15CEA010201D1620773
:1039A00005D530228DF804204FF001087F1E5828DD
:1039B00004D034A003900EA802900DE036A0F9E7E1
:1039C00053466046009AFCF7B5FD84460398825C36
:1039D0000298401E029002705CEA0100F0D1029849
:1039E00006A9081A00F1200A600702D524F48034E1
:1039F00000E00127574502DDA7EB0A0000E00020A8
:103A000000EB0A01009005984144401A0590E0033C
:103A100006D45B462146179A059800F0B3F9054491
:103A2000002706E001A85A46C05D179990476D1C13
:103A30007F1C4745F6DBE0030CD55B462146179A11
:103A4000059800F09FF9054404E030205A46179984
:103A500090476D1C0099481E00900029F5DC08E095
:103A6000029802995A460078491C0291179990478A
:103A70006D1CBAF10001AAF1010AF1DC65E1000058
:103A80000928010030313233343536373839616234
:103A900063646566000000003031323334353637F8
:103AA00038394142434445460000000000F058F9CF
:103AB0000544761C307800287FF4ECAD19B0284618
:103AC000BDE8F08F620700D4062709F1070222F053
:103AD000070CFCE80223E14603F000485FEA080C0B
:103AE00002D00FF2702C0DE05FEA045C02D50FF2F9
:103AF000682C07E05FEAC47C02D00FF2602C01E082
:103B0000AFF2700C4FF0FF3823F00043CDF850C0F7
:103B100065280CD006DC452809D046281DD047284A
:103B20003DD13DE0662818D067287ED138E00021DD
:103B3000112F01DB112000E0781CCDE9000106A95E
:103B40000EA8FFF7DDFCDDE90F010E9A03910021BD
:103B5000009207F1010A04914DE04FF000400097F8
:103B6000CDE9011006A90EA8FFF7CAFCDDE90F0296
:103B700003920E9B11990022DDF80CA00093049291
:103B800011B9791C00EB010AB7EB0A0004D4C0F1AB
:103B9000FF3007F1010A0490AAEB0700019044E00E
:103BA000012F00DA01270021112F01DD112000E093
:103BB0003846CDE9000106A90EA8FFF7A1FCDDE912
:103BC0000F010E9A0391002104910092BA46210739
:103BD0000CD40399514500DA8A46BAF1010F05DD8C
:103BE000009AAAF10101515C302908D0B84202DAEA
:103BF00010F1040F06DA0121CDE9011015E0AAF158
:103C00000101E9E7002805DC049901440491AAEBCD
:103C1000000102E0411C514500DD8A460499401A2A
:103C2000401C01904FF000400290200704D40198FE
:103C3000504501DBCDF8048000208DF84F0002983C
:103C40000DF14F07B0F1004F25D02B200E900298B8
:103C50004FF0020800280CDA404202902D200E900E
:103C600007E00A210298FCF74FFC3031029007F878
:103C7000011DB8F10001A8F10108F2DC029800284A
:103C8000EFD1791E0E980870307800F0200040F0D7
:103C9000450007F8020D12A8C01B00F10708149890
:103CA000007800B1012000EB0A01019801EBE071FE
:103CB00005984144401A401E0590E00306D45B4637
:103CC0002146179A059800F05DF80544149800788D
:103CD00018B15A46179990476D1CE00324D55B46EE
:103CE0002146179A059800F04DF805441CE0049809
:103CF000002807DBDDE90301884203DD0098405C12
:103D0000179901E0179930205A469047049805F119
:103D10000105401C04900198401E019004D12E2002
:103D20005A46179990476D1CBAF10001AAF1010A91
:103D3000DDDC05E017F8010B5A46179990476D1C1A
:103D4000B8F10001A8F10108F4DC5B462146179A9E
:103D50000598ABE62D0000002B00000020000000BD
:103D60002DE9F041044600251E461746880404D478
:103D700005E039462020B0476D1C641EF9D5284661
:103D8000BDE8F0812DE9F041044600251E4690462D
:103D9000C80301D5302700E02027880404D505E0BA
:103DA00041463846B0476D1C641EF9D52846BDE82B
:103DB000F081000070B504460D46E1B20548FFF7FA
:103DC00032FA00BF0348008800F080000028F9D0D4
:103DD000204670BD0038014010B5002821D0114B9D
:103DE0000022001F196803E0814203D80A4649688F
:103DF0000029F9D152B11368841A9C4204D1006899
:103E000018441060104602E0506000E0186039B1BC
:103E100002680B1A934203D10B681A440260496886
:103E2000416010BD88000020454C012245494648AC
:103E3000FEF7F2FA434840784249097840EA012007
:103E40004249088001223F493F48801CFEF7E4FABE
:103E50003C48FEF77DFB082221463B48001DFEF74B
:103E6000DBFA2078FF280DD16078FF280AD10021E5
:103E70003748224611605060082221463248001D12
:103E8000FEF7DEFA334C082221462F480C30FEF7AD
:103E9000C3FA2078FF280CD16078FF2809D10021CF
:103EA0002246116051600822214627480C30FEF757
:103EB000C7FA294802684368284908684968FCF736
:103EC000FAF9054600224FF08043FCF766FA244ACF
:103ED00010605160FEF7DCF84FF4E130FEF77EFC35
:103EE0001A4801881FA0FFF7EBFAFCF799FCFEF7D0
:103EF000A3F86420FDF726FC4FF400611B48FDF792
:103F000054FFFDF7FFFC114801880720FDF704F975
:103F1000114802684368114908684968FCF7CBF901
:103F2000054600224FF08043FCF737FA0C4A106038
:103F300051604FF400410E48FDF735FF00BFFEE72A
:103F4000100000205000002000FC000804000020A9
:103F5000D012E33F1800002030000020280000208D
:103F60003800002049443D25580A0000000C01405B
:103F700000080140F0B50B30154D20F0070100247A
:103F8000144A0FE003688B420BD38B4205D95E1AAB
:103F900043184768C3E9006700E04368136002C044
:103FA00004E0021D10680028ECD12046002802D150
:103FB000286808B10020F0BD064A07481060074A8B
:103FC000121A22F00702C0E9002401202860D7E776
:103FD0008C00002088000020E4080020E00A002077
:103FE000004000080000002090000000E0340008BD
:103FF0009040000890000020500E0000F0340008AF
:104000000000000000800000000000000000000030
:1040100000000000D012E33F000000000046DE4038
:1040200000000000000000004CA02526D012E33F55
:10403000000000000000F03F000000000000F03F22
:104040000000000000000000000000000000000070
:1040500000000001000100000000000000A24A046E
:104060000000000000000000010203040607080928
:10407000000000000102030401020304060708090E
:10408000020406080000000000000000000000001C
:0400000508000131BD
:00000001FF
