:020000040800F2
:100000009808002045010008B11700080B170008E8
:10001000AD17000887070008F5230008000000005E
:100020000000000000000000000000000B1C0008A1
:10003000B1120008000000005B0100085D0100082B
:100040005F0100085F0100085F0100085F01000810
:100050005F0100085F0100085F0100085F01000800
:100060005F0100085F0100085F0100085F010008F0
:100070005F0100085F0100085F0100085F010008E0
:100080005F0100085F0100085F0100085F010008D0
:100090007D2200085F0100085F0100085F01000881
:1000A0005F0100085F0100085F0100085F010008B0
:1000B0005F0100085F0100085F0100085F010008A0
:1000C0005F0100085F0100085F0100085F01000890
:1000D0005F010008311E00085F0100085F01000891
:1000E0005F0100085F0100085F0100085F01000870
:1000F0005F0100085F0100085F0100085F01000860
:100100005F0100085F0100085F0100085F0100084F
:100110005F0100085F0100085F0100085F0100083F
:100120005F0100085F0100085F0100085F0100082F
:10013000DFF80CD000F086FA00480047152D0008C3
:10014000980800200648804706480047FEE7FEE77B
:10015000FEE7FEE7FEE7FEE7FEE7FEE7FEE7FEE777
:10016000F51C0008310100082DE9FE4F81EA030467
:1001700004F0004421F0004100944FF0000B23F004
:10018000004350EA01045ED052EA03045BD0C3F39B
:100190000A54C1F30A552C44A4F2F3340194A0FB91
:1001A0000254C1F3130141F48011C3F3130343F468
:1001B000801301FB024400FB034E840A970A44EAC1
:1001C000815447EA8357A4FB076802958D0A05FB13
:1001D00007854FEA932C04FB0C542705029D4FEA38
:1001E000065847EA1637B5EB08056EEB070C870E85
:1001F000920E47EA811742EA8312A7FB0201B6EB8F
:100200000B0164EB00042B0D43EA0C335E1844EB46
:100210001C50DA465146E7FB0201C5F313044FEACE
:100220000B3343EA14534FEA0432019C43EA0603BA
:10023000A4F10C040294009CCDE900B400F0DCF8B9
:1002400003B0BDE8F08F00200146F9E72DE9F04D3D
:1002500081EA030404F0004B21F0004514464FF0FE
:10026000000A23F0004150EA050220D054EA0102BE
:100270001DD0C5F30A570246C5F31303C1F313009B
:10028000C1F30A5640F4801543F48013A7EB060827
:10029000101BD64608F2FD3873EB050002D308F1B7
:1002A000010801E092185B41B8F1000F03DA002069
:1002B0000146BDE8F08D00204FF4801106468446CB
:1002C0000EE0171B73EB050705D3121B63EB050349
:1002D00006434CEA010C49084FEA300092185B4192
:1002E00050EA0107EDD152EA030012D082EA04007D
:1002F00083EA0501084305D0101BAB4106D2012259
:10030000002306E000224FF0004302E06FF00102FC
:1003100053101AEB06004CEB085110EB0A0041EBAE
:100320000B01BDE8F04D00F058B80EB5C10F80EAE2
:10033000E0700844CA07002140F233438DE80E0004
:100340000A460B4600F058F803B000BD30B50B4626
:10035000014600202022012409E021FA02F59D42F5
:1003600005D303FA02F5491B04FA02F52844151EC9
:10037000A2F10102F1DC30BD2DE9F05F054600205D
:1003800092469B4688460646814640241BE0284606
:1003900041464746224600F076F953465A46C01A6F
:1003A000914110D311461846224600F05DF92D1AEE
:1003B00067EB01084F4622460120002100F054F966
:1003C00017EB00094E41201EA4F10104DFDC484672
:1003D00031462A464346BDE8F09F10B5141E73F11E
:1003E000000408DA401C41F1000192185B411A43F5
:1003F00001D120F0010010BD2DE9F04D92469B4641
:1004000011B1B1FA81F202E0B0FA80F220329046E6
:1004100000F02AF904460F4640EA0A0041EA0B01BF
:1004200053465A46084313D0114653EA010019D0E7
:10043000C8F14002504600F026F905460E465046E7
:100440005946424600F010F9084305D0012004E067
:1004500020463946BDE8F08D0020054346EAE076A7
:100460002C4337430A986305E40AA0EB08000022F6
:10047000FD0A44EA47540A3002D500200146E9E764
:10048000010510196941DDE9084500196941BDE818
:10049000F04DA2E72DE9FE4F804681EA0300C00F30
:1004A0000C46009021F0004123F00045B8EB02001B
:1004B000A94105D24046214690461C460B460246BD
:1004C00023F00040104347D0270DC7F30A00C3F3C1
:1004D0000A510290401A019040286BDAC3F31300CE
:1004E00040F4801B0098924620B10023D2EB030A0F
:1004F00063EB0B0B01985946C0F14002504600F0E7
:10050000B3F806460D4650465946019A00F0CBF81E
:1005100010EB08006141002487EA115284EAE77376
:100520001A4340D0009A62B3019A012A4FEA075257
:1005300015DC001B61EB02014FF0004202EA07529A
:10054000CDE90042001C41F5801132462B46FFF7F1
:1005500053FF03B0BDE8F08F40462146F9E7001B8A
:1005600061EB0201001C41F5801300185B4120186B
:10057000A2F5001747EB030140EAD570B6196D41AB
:1005800011E06D084FEA360645EAC0754FEA07529A
:10059000001B61EB0201001C41F5801149084FEA84
:1005A00030000019514132462B4603B0BDE8F04FF0
:1005B000FFF713BF0098012240000023D0EB020296
:1005C00063EBE073009821464FEAE074B8EB00005B
:1005D00061EB0401E9E783F000435BE781F0004150
:1005E00058E7C1F30A52C1F3130140F2FF3341F45B
:1005F00080119A4202DA00200146704740F23343EC
:100600009A42A2F2334202DC524200F03CB800F0BF
:100610002BB8000030B5041E71F1000404DB4FF06C
:100620000044404264EB0101141E73F1000405DB39
:100630001C464FF00043524263EB0403994208BF4B
:10064000904230BD064C074D06E0E06840F00103E3
:1006500094E8070098471034AC42F6D3FFF76CFDDE
:10066000AC2E0008CC2E0008202A04DB203A00FA29
:1006700002F1002070479140C2F1200320FA03F3F9
:10068000194390407047202A04DB203A21FA02F0F7
:100690000021704721FA02F3D040C2F120029140BC
:1006A000084319467047202A06DBCB17203A41FA47
:1006B00002F043EAE07306E041FA02F3D040C2F1EF
:1006C00020029140084319467047000010B50024ED
:1006D0004FF48051144800F0DEFF00BF4FF48061FA
:1006E000114800F0CFFF0028F8D1FC2001F0D4F928
:1006F000002001F0D1F9012001F0CEF9FF2001F036
:10070000CBF944EA0044FF2001F0C6F944EA002492
:10071000FF2001F0C1F904434FF48051024800F07A
:10072000BCFF204610BD0000000C014070B504461F
:100730000D464FF480510E4800F0ADFF00BF4FF45E
:1007400080610B4800F09EFF0028F8D104F00F01F3
:1007500041F0500001F0A0F9002001F09DF9284679
:1007600001F09AF94FF48051014800F096FF70BDF6
:10077000000C014010B5044621460120FFF7D6FFCA
:10078000FFF7A4FF10BD00BFFEE710B500F0DAF8D8
:1007900000F0C0F900F092F900221146104600F076
:1007A000A5F8142001F005F810BD000010B50446AE
:1007B0000B48844209D10121480601F057F8002175
:1007C0004FF0007001F052F808E00121880601F0B6
:1007D0004DF800214FF0806001F048F810BD000096
:1007E0000064004010B50021837A012202FA03F16F
:1007F0003D4A126842F001023B4B1A603A4A1C32F1
:1008000012688A43384B1C331A60027BCAB9364AD5
:100810000C3212688A43344B0C331A604288C38806
:1008200042EA0343304A4032847A42F83430028844
:10083000838842EA03432C4A4032847A02EBC402A2
:100840005360027B012A19D1274A0C3212680A43ED
:10085000254B0C331A604288038842EA0343224A3C
:100860004032847A42F83430C288838842EA0343B3
:100870001D4A4032847A02EBC4025360C27A3AB90C
:10088000194A121D12688A43174B1B1D1A6006E095
:10089000154A121D12680A43134B1B1D1A60028968
:1008A00032B9114A143212688A430F4B14331A605A
:1008B0000289012A06D10C4A143212680A430A4BF3
:1008C00014331A60427B012A06D1074A1C3212688F
:1008D0000A43054B1C331A60034A126822F00102D6
:1008E000014B1A6010BD0000006600407FB5044651
:1008F0000D46164600208DF80A008DF80B000120E9
:100900008DF80C00C4F34F30ADF80000042000EB6C
:10091000C40080B2ADF80200ADF80450ADF8066036
:100920000020ADF8080001208DF80D006846FFF7A3
:1009300059FF01220221024800F02CF87FBD00007F
:100940000064004008B50121052000F09FFF01214F
:10095000480600F07BFF4FF40060ADF8000048202F
:100960008DF8030003208DF802006946084800F066
:10097000B5FD4FF48050ADF8000018208DF803004D
:1009800003208DF802006946014800F0A7FD08BD6C
:10099000000801401AB143690B43436102E0436917
:1009A0008B434361704730B5024600200023146832
:1009B00024F002041460146844F00104146000E0A0
:1009C0005B1C546804F001041CB94FF6FF74A34289
:1009D000F6D1546804F001040CB900206CE08C7965
:1009E000012C04D1146844F08004146003E01468FE
:1009F00024F080041460CC79012C04D1146844F0F4
:100A00004004146003E0146824F0400414600C7A7D
:100A1000012C04D1146844F02004146003E014682D
:100A200024F0200414604C7A012C04D1146844F0A2
:100A30001004146003E0146824F0100414608C7A2D
:100A4000012C04D1146844F00804146003E0146815
:100A500024F008041460CC7A012C04D1146844F00A
:100A60000404146003E0146824F0040414608C7817
:100A7000A407CD7844EA05640D7944EA05444D792C
:100A800044EA05540D886D1E2C43D461146824F08B
:100A900001041460002300E05B1C546804F00104AE
:100AA0001CB14FF6FF74A342F6D1546804F0010460
:100AB0000CB1002000E0012030BD00000EB514484C
:100AC000FFF774FE684600F0E7F800208DF8060096
:100AD00001208DF807008DF8080000208DF809002E
:100AE0008DF80A008DF80B008DF8020001208DF8BA
:100AF000030005208DF8040002208DF80500042075
:100B0000ADF8000069460248FFF74DFF0EBD00003A
:100B10000064004008B54FF4C06000F08DFE142062
:100B20008DF8000000208DF801008DF802000120F2
:100B30008DF80300684600F047FE08BD10B500F5CB
:100B4000D87303EB01131B6803F004031372137AC9
:100B500053B900F5D87303EB01131B6840F2FF741F
:100B600004EA5353136009E000F5D87303EB011353
:100B70001B686FF0604404EAD303536000F5D87338
:100B800003EB01131B6803F00203537200F5D873E3
:100B900003EB01135B6803F00F03937200F5D87346
:100BA00003EB01135B681B0AD37400F5D87303EBE6
:100BB00001139B68D37200F5D87303EB01139B6894
:100BC0001C0A147300F5D87303EB01139B681C0C0B
:100BD000547300F5D87303EB01139B681B0E9373DA
:100BE00000F5D87303EB0113DB68D37300F5D873FA
:100BF00003EB0113DB681C0A147400F5D87303EBD4
:100C00000113DB681C0C547400F5D87303EB01135B
:100C1000DB681B0E937421B9C36843F02003C360E3
:100C200003E0036943F02003036110BD7CB5054672
:100C30000C4616460020019000901548456004209F
:100C400013490872002048720846867207E014F8BB
:100C5000012B0198411C01910D490B310A54207858
:100C60000028F4D10A490B4800F026F80090002033
:100C7000019002E00198401C01909DF80010054889
:100C800000F0AEF8012802D00198FF28F2D17CBD17
:100C9000700000200064004000218171C171017268
:100CA00041728172C1728170C17003210171022190
:100CB000417101210180704710B502460020936800
:100CC00003F08063B3F1806F00D110E0936803F00C
:100CD0000063B3F1006F01D1012008E0936803F0D5
:100CE0008053B3F1805F01D1022000E0042004288A
:100CF00074D002F5C07303EB00131B6803F001040A
:100D000002F5C07303EB00131C600B7A7BB94B7ABE
:100D10000C8843EA445302F5C07404EB00142468C1
:100D2000234302F5C07404EB0014236010E00B7A37
:100D30004C6843EAC4034C7A234302F5C07404EBC5
:100D400000142468234302F5C07404EB00142360EC
:100D50008B7A03F00F038B7202F5C07303EB001361
:100D60005B6823F00F0402F5C07303EB00135C60B3
:100D700002F5C07303EB00135B688C7A234302F522
:100D8000C07404EB001463608B7B1C064B7B44EA4D
:100D900003440B7B44EA0323CC7A234302F5C0745B
:100DA00004EB0014A3608B7C1C064B7C44EA0344D8
:100DB0000B7C44EA0323CC7B234302F5C07404EB91
:100DC0000014E36002F5C07303EB00131B6843F0EB
:100DD000010402F5C07303EB00131C6010BD00009A
:100DE00010B50246002321B1012907D002290FD1F5
:100DF00009E090681D4C00EA04030BE090681C4C6D
:100E000000EA040306E090681A4C00EA040301E0DB
:100E1000002300BF00BF184C181BA34216D007DCEC
:100E200083B16FF08060184470B1022818D111E0CE
:100E3000B0F5007F10D0114C204448B1B0F5003F10
:100E40000ED10BE002230DE000230BE0002309E0AC
:100E5000002307E0012305E0012303E0012301E073
:100E6000002300BF00BFD8B210BD00000300000483
:100E70000003000800000310000100080001FFF754
:100E80002DE9F04186B080460E4617461D46062DD8
:100E900003DA50208DF8040002E055208DF804009C
:100EA000E81CC0B28DF805008DF80660002405E04E
:100EB000395D01AAE01C1154601CC4B2AC42F7DBDE
:100EC0009DF8052001A903480088FFF7AFFE06B092
:100ED000BDE8F081040000202DE9F04F87B0DA482A
:100EE000007801287AD1D9480078502803D0D74813
:100EF0000078552873D1D54886780079D349C978C8
:100F000040EA01200690D1488079D049497940EAE9
:100F10000129052E7ED006DC052E7CD2DFE806F006
:100F20001027608D8E00202E76D004DC112E74D018
:100F3000152E70D1C4E0212E70D0222EF9D131E1CE
:100F4000C3480088BDF81810884205D0BDF81800C5
:100F50004FF6FF71884209D1484600F075FA022326
:100F6000BB4A112110460088FFF78AFF65E1B848A7
:100F70000088BDF81810884204D0BDF81800B0F5FC
:100F8000004F2AD1002000F08AFB8246FFF7CDF9FE
:100F90000746B0480CC83846FFF7E6F8CDE904012B
:100FA00004AC022322460421A9480088FFF768FF09
:100FB0000022A94BDDE90401FFF748F907468846FE
:100FC0000022A64BDDE90401FFF740F98DE883011B
:100FD000A3A0DDE9042301F011FA2EE131E12DE1B6
:100FE0009B480088BDF81810884204D0BDF818004E
:100FF000B0F5004F20D1302000F051FB0390FFF7F7
:1010000094F9824693480CC85046FFF7ADF807465E
:10101000002204E037E00FE162E049E07FE0964B18
:10102000FFF714F9CDE9040104AC0223224605219F
:1010300087480088FFF724FFFFE0FEE004AC0025AE
:1010400006E0E81C8149085C2070641C681CC5B27D
:101050007E484078C01EA842F3DC00227E4BDDE9CA
:101060000401FFF7F3F80746884600227B4BDDE9D1
:101070000401FFF7EBF88DE8830179A0DDE9042393
:1010800001F0BCF9D9E004AC002506E0E81C6F498A
:10109000085C2070641C681CC5B26C484078C01E97
:1010A000A842F3DC75A0DDE9042301F0A7F9C4E050
:1010B0000223674A062110460088FFF7E1FEBCE0E4
:1010C00080200690BDF81800002141EA002080B27F
:1010D0000690022206A95E480088FFF7A7FDACE053
:1010E0005B480088BDF81810884204D0BDF818008D
:1010F000B0F5004F12D11021654800F0CEFA4FF440
:101100008071634800F0C9FA4FF40071614800F043
:10111000C2FA4FF480715F4800F0BDFA8DE04C4890
:101120000088BDF81810884204D0BDF81800B0F54A
:10113000004F36D14FF40071564800F0ACFA4FF42E
:101140008071544800F0A9FA01F056F91021504876
:1011500000F0A1FA002000F0A2FA8246FFF7E5F8BD
:1011600007463C480CC83846FEF7FEFFCDE90401AF
:101170000022394BDDE90401FFF768F8074688468D
:101180000022364BDDE90401FFF760F88DE88301AA
:1011900033A0DDE9042301F031F910213C4800F0CF
:1011A0007CFA4AE02A480088BDF81810884204D02A
:1011B000BDF81800B0F5004F3DD14FF4007135482F
:1011C00000F069FA4FF48071324800F066FA01F0DD
:1011D00013F94FF480712E4800F05DFA302000F0D2
:1011E0005EFA0390FFF7A1F882461A480CC85046F1
:1011F000FEF7BAFF074600221F4BFFF727F8CDE99D
:1012000004010022144BDDE90401FFF71FF8074633
:1012100088460022114BDDE90401FFF717F88DE83D
:1012200083011DA0DDE9042301F0E8F84FF480718B
:10123000174800F032FA00E000BF00BF002002496A
:10124000087007B0BDE8F08F020000205C000020AD
:10125000040000200800002080842E4100408F40C0
:10126000254C6675562C20254C666D562C20254C39
:1012700066560D0A000000000000244054686520F6
:1012800043757272203D20254C66206D410D0A0089
:1012900000080140000C0140254C6675412C2025BA
:1012A0004C666D412C20254C66410D0A0000000063
:1012B0007047000001461B4A12681B4BB2FBF3F259
:1012C0001A4B1A701A46127802EB4203C3EBC21291
:1012D0004FF6FF7303EAC202154B1A801A461288B2
:1012E0004A434FF0E0235A6100229A611A4612697C
:1012F00042F001021A6100BF4FF0E022106900F0D5
:1013000001021AB100F48032002AF5D04FF0E02239
:10131000126922F001024FF0E0231A6100229A6163
:10132000704700001C00002000127A001600002008
:101330001800002030B5044604254FF4302000F09A
:101340006FF80546042D17D10C48006940F00200E3
:101350000A49086108464461006940F0400008619C
:101360004FF4302000F05CF805460448006941F66F
:10137000FD71084001490861284630BD0020024047
:1013800004200B49C96801F0010109B101200EE0F8
:101390000749C96801F0040109B1022007E00449C6
:1013A000C96801F0100109B1032000E00420704772
:1013B000002002400348006940F0800001490861B4
:1013C000704700000020024070B504460D46042618
:1013D000F00200F025F80646042E11D109480069F4
:1013E00040F00100074908612580F00200F018F87C
:1013F00006460448006941F6FE710840014908614B
:10140000304670BD0020024002480349486003484E
:10141000486070472301674500200240AB89EFCD4B
:1014200000B502460423FFF7ABFF034603E0FFF7D6
:10143000A7FF0346521E012B01D1002AF7D102B9A2
:101440000523184600BD000038B50446E0B28DF80B
:101450000100200A8DF8000001226946034800F0CF
:101460004DFB03480480FFF790F938BD00FC0008ED
:101470000400002008B50121042000F007FA4FF411
:101480008870ADF8000010208DF8030003208DF85F
:10149000020069460F4800F021F84FF488710D48AA
:1014A00000F0FBF80121082000F0F0F94FF4407043
:1014B000ADF8000010208DF8030003208DF8020025
:1014C0006946054800F00AF84FF44071024800F000
:1014D000E4F808BD00080140000C01402DE9F0418E
:1014E000024600250026002000230024002791F852
:1014F00003C00CF00F0591F803C00CF0100CBCF108
:10150000000F03D091F802C04CEA050591F800C025
:10151000BCF1000F31D0146800202BE04FF0010C1B
:101520000CFA00F3B1F800C00CEA03069E4220D189
:1015300083004FF00F0C0CFA03F7BC4305FA03FCD1
:101540004CEA040491F803C0BCF1280F06D14FF017
:10155000010C0CFA00FCC2F814C00AE091F803C0B8
:10156000BCF1480F05D14FF0010C0CFA00FCC2F899
:1015700010C0401C0828D1D31460B1F800C0BCF1E1
:10158000FF0F34DD546800202EE000F1080C4FF00E
:10159000010808FA0CF3B1F800C00CEA03069E42F9
:1015A00021D183004FF00F0C0CFA03F7BC4305FA6E
:1015B00003FC4CEA040491F803C0BCF1280F05D1E8
:1015C00000F1080C08FA0CF8C2F8148091F803C076
:1015D000BCF1480F07D100F1080C4FF0010808FAE0
:1015E0000CF8C2F81080401C0828CED35460BDE827
:1015F000F0810000F0B50A460023002400210025F8
:1016000000F00046B6F1004F02D11D4EF16901E035
:101610001B4E7168C0F3034583B200F44016B6F563
:10162000401F08D121F07061154E766826F0706673
:10163000134F7E6012E000F48016B6F5801F06D1CD
:10164000032606FA05F4A14341F0706106E0460D59
:10165000360103FA06F6B14341F0706122B1460D3E
:10166000360103FA06F6314300F00046B6F1004FAA
:1016700002D1034EF16101E0014E7160F0BD000046
:10168000000001400246002093680B400BB101208E
:1016900000E00020704741617047016170472DE90B
:1016A000F041074647F00800FFF764F8064647F0A8
:1016B0000800FFF75FF8064606F4000020B1F64385
:1016C000C6F31606761C764247F00800FFF752F87C
:1016D000044604F4000020B1E443C4F31604641C7F
:1016E000644247F00800FFF745F8054605F400009E
:1016F00020B1ED43C5F316056D1C6D423019284429
:10170000032190FBF1F0BDE8F08100BFFEE700008F
:1017100008B50121082000F0B9F84FF40060ADF8D9
:10172000000010208DF8030003208DF802006946A8
:101730000C48FFF7D3FE4FF400610A48FFF7ABFFF8
:101740004FF48060ADF8000048208DF803000320BE
:101750008DF8020069460348FFF7C0FE00F010F95B
:1017600008BD0000000C014008B50121052000F073
:101770008DF801210B48FFF73DFF4FF40040ADF815
:10178000000010208DF8030003208DF80200694648
:101790000548FFF7A3FE4FF400410348FFF77DFF24
:1017A00008BD0000000230000008014000BFFEE755
:1017B000704700F01F02012191404209920002F19E
:1017C000E022C2F80011704770B5002100230F22FB
:1017D000C47804B3154C246804F4E064C4F5E064F0
:1017E000210AC1F10403CA40447804FA03F1847861
:1017F0001440214309010E4C0678A155047804F0E9
:101800001F050124AC4005786D11AD0005F1E02500
:10181000C5F8004109E0047804F01F050124AC403C
:10182000044D0678761145F8264070BD0CED00E0B9
:1018300000E400E080E100E002490143024A116057
:10184000704700000000FA050CED00E029B1064ADF
:10185000D2690243044BDA6104E0034AD26982434D
:10186000014BDA61704700000010024029B1064ABE
:1018700012690243044B1A6104E0034A126982436D
:10188000014B1A61704700000010024029B1064A5E
:1018900092690243044B9A6104E0034A92698243CD
:1018A000014B9A61704700000010024030B50021E2
:1018B0000022002400232D4D6D6805F00C0121B19C
:1018C000042905D0082923D105E0294D056022E02F
:1018D000274D05601FE0254D6D6805F47012234DFE
:1018E0006D6805F48034022505EB92421CB9214D48
:1018F000554305600BE01D4D6D6805F400351DB1C5
:101900001C4D5543056002E0194D5543056002E04A
:10191000174D056000BF00BF144D6D6805F0F00164
:101920000909154D6B5C0568DD4045600F4D6D681C
:1019300005F4E061090A104D6B5C4568DD40856087
:101940000A4D6D6805F46051C90A0B4D6B5C456822
:10195000DD40C560054D6D6805F44041890B074DBC
:101960006B5CC568B5FBF3F5056130BD0010024046
:1019700000127A0000093D003000002040000020E5
:1019800000B587B001210820FFF780FF01218803FF
:10199000FFF75CFF4FF46040ADF8040003208DF8C2
:1019A000060018208DF8070001A91D48FFF796FDD5
:1019B0004FF48050ADF8040003208DF8060010208D
:1019C0008DF8070001A91648FFF788FD4FF48051F4
:1019D0001348FFF762FE0020ADF808004FF4827054
:1019E000ADF80A000020ADF80C00ADF80E000120A3
:1019F000ADF810004002ADF812003820ADF8140028
:101A00000020ADF816000720ADF8180002A905481F
:101A100000F024F80121034800F006F807B000BDEB
:101A2000000C01400038004021B1028842F0400221
:101A3000028004E002884FF6BF731A4002807047AC
:101A40000246002013890B400BB1012000E000206A
:101A500070470146888970478181704710B5002220
:101A6000028802F441520B884C8823438C8823431C
:101A7000CC8823430C8923434C8923438C892343FB
:101A8000CC8923431A430280838B4FF2FF74234097
:101A900083830B8A038210BD70B50446002500BF06
:101AA00002210B48FFF7CCFF0028F9D02146084857
:101AB000FFF7D2FF00BF01210548FFF7C1FF002853
:101AC000F9D00348FFF7C5FFC5B2284670BD000036
:101AD0000038004030B503460C461546002207E0AA
:101AE000184600F008F824F812009B1C501C82B223
:101AF000AA42F5DB30BD0146088870472DE9F05F4A
:101B000080468A461746B8F1006F02D333488045B5
:101B100001D3BDE8F09FFFF777FCA8F1006B4FEA17
:101B20009B25CBF34809C9F50074A74200DC3C466D
:101B30004DE04FF0006101EB85208A142849FFF742
:101B4000C9FF00260BE009EB0600254931F810001B
:101B50004FF6FF71884200D003E0701C86B2A642A7
:101B6000F1DB00BFA6421BDA4FF0006101EB8520DC
:101B7000FFF7E0FB002608E03AF8160006EB090143
:101B8000174A22F81100701C86B2A642F4DB4FF00F
:101B9000006101EB85208A14114900F023F804E06C
:101BA00022465146404600F01DF8A74200D10FE002
:101BB0006D1C4FF000090AEB440AA044381B87B2A1
:101BC000B7F5007F02DD4FF4007400E03C46B0E75B
:101BD00000BFFFF7EFFB00BF9BE70000000001081C
:101BE000980000202DE9F04105460E4617460024D6
:101BF00007E036F814102846FFF7E6FBAD1C601C22
:101C000084B2BC42F5DBBDE8F081704710B500F04E
:101C100001F810BD0CB50020019000903348006819
:101C200040F480303149086000BF3048006800F45B
:101C3000003000900198401C0190009818B901985C
:101C4000B0F5A06FF1D12948006800F4003010B160
:101C50000120009001E0002000900098012843D16D
:101C60002348006840F010002149086008460068D9
:101C700020F0030008600846006840F00200086099
:101C80001A48406819494860084640684860084654
:101C9000406840F4806048600846406820F47C104A
:101CA00048600846406840F4E8104860084600680C
:101CB00040F08070086000BF0C48006800F00070C1
:101CC0000028F9D00948406820F00300074948601F
:101CD0000846406840F00200486000BF0348406882
:101CE00000F00C000828F9D10CBD000000100240E3
:101CF0000020024010B51348006840F0010011496F
:101D0000086008464068104908400E494860084687
:101D100000680E4908400B4908600846006820F436
:101D2000802008600846406820F4FE0048604FF4B8
:101D30001F008860FFF76AFF4FF0006004490860E9
:101D400010BD0000001002400000FFF8FFFFF6FE8B
:101D500008ED00E010B504462146054800F089FA78
:101D600000BF4021024800F0B7F90028F9D010BDAB
:101D70000038014010B586B0044601210420FFF769
:101D800085FD01218803FFF781FD4FF40070ADF858
:101D9000140018208DF8170003208DF8160005A9EF
:101DA0002148FFF79BFB4FF48060ADF8140004203E
:101DB0008DF8170005A91C48FFF790FB019400203F
:101DC000ADF80800ADF80A00ADF80C00ADF8100051
:101DD0000C20ADF80E0001A9144800F0D9F9012239
:101DE00040F22441114800F0AEF9012240F22551A1
:101DF0000E4800F0A8F901210C4800F061F94FF4F9
:101E0000E060FFF719FD25208DF8000000208DF817
:101E1000010001208DF802008DF803006846FFF7ED
:101E2000D3FC06B010BD000000080140003801409E
:101E300010B500BF40F22551104800F05AF960B1CA
:101E40000E4800F011FAC1B20D4802780078401C2B
:101E50000B4B18700B4881540FE040F224410748A7
:101E600000F047F948B105480088C4B20348001D96
:101E70000088C4B201200449087010BD0038014038
:101E80000100002048000020000000202DE9FF474D
:101E90007E48007801287DD100207C4908707C486C
:101EA0000078AA2877D17A4890F802A0BAF1120FE8
:101EB0005AD011DCBAF1020F30D006DCBAF1000FB3
:101EC0001CD0BAF1010F67D120E0BAF1030F2DD079
:101ED000BAF1110FF7D131E0BAF1200F7ED006DC54
:101EE000BAF1130F68D0BAF1140FECD18BE0BAF14C
:101EF000210F74D0BAF1220FE5D1B8E00222644973
:101F0000C91C64480088FEF791FEB9E002226049CE
:101F1000C91C60480088FEF789FEB1E002225C49D6
:101F2000C91C5C480088FEF781FEA9E002225849DE
:101F3000C91C58480088FEF779FEA1E05448007992
:101F40005349C97840EA0120524908800846008870
:101F5000FFF77AFA3020FFF7FDFE3120FFF7FAFE97
:101F60003220FFF7F7FE8BE00020FFF798FB80465A
:101F7000FEF7DBF9064648480CC83046FEF7F4F891
:101F800004460D460022454B20462946FEF75EF9E1
:101F9000064602E078E074E071E00F460022404B14
:101FA00020462946FEF752F922462B468DE8C3000B
:101FB0003CA000F023FA63E00020FFF770FB8046AE
:101FC000FEF7B3F9064634480CC83046FEF7CCF8A5
:101FD00004460D460022314B204601E037E03EE04A
:101FE0002946FEF733F906460F4600222C4B2046C1
:101FF0002946FEF72BF922462B468DE8C30029A07F
:1020000000F0FCF93CE07020FFF749FB8046FEF74A
:102010008CF9064620480CC83046FEF7A5F8044661
:102020000D4600221D4B20462946FEF70FF90646B5
:102030000F4600221A4B20462946FEF707F9224692
:102040002B468DE8C30017A000F0D8F918E0022253
:102050000F49C91C0F480088FEF7E8FD10E0022276
:102060000B49C91C0B480088FEF7E0FD08E002227E
:102070000749C91C07480088FEF7D8FD00E000BFEB
:1020800000BF00200D490870BDE8FF870000002058
:1020900048000020040000200800002080842E4119
:1020A00000408F40254C6675562C20254C666D5699
:1020B0002C20254C66560D0A00000000010000206F
:1020C00021B1828942F40052828104E082894DF676
:1020D000FF731A408281704702460020B1F5007FED
:1020E00000D100BF13880B400BB1012000E000209D
:1020F000704770B50246002400230025002040F6FA
:102100006A16B14200D100BFC1F3421501F01F03AE
:10211000012606FA03F3012D02D19689334006E029
:10212000022D02D1168A334001E0968A33400C1208
:10213000012606FA04F41688344013B10CB10120CC
:1021400000E0002070BDF0B5034600240026002505
:10215000002040F66A17B94200D100BF1846C1F30B
:10216000421401F01F06012707FA06F5012C01D1E0
:102170000C3004E0022C01D1103000E014301AB110
:1021800007682F43076002E00768AF430760F0BDB0
:102190002DE9F04786B005460E460024A24600BF52
:1021A000A1460027B08900B100BF2F462C8A4CF60B
:1021B000FF700440F08804432C82AC894EF6F31083
:1021C0000440B08831890843718908430443AC81D5
:1021D000AC8A4FF6FF400440B0890443AC8201A8AA
:1021E000FFF764FB1F48874202D1DDF810A001E031
:1021F000DDF80CA0A88900F4004040B10AEBCA0049
:1022000000EB0A1031684900B0FBF1F807E00AEB77
:10221000CA0000EB0A1031688900B0FBF1F86420B5
:10222000B8FBF0F004012009642101FB1089A889A2
:1022300000F4004040B1322000EBC900B0FBF1F0E7
:1022400000F00700044308E0322000EB091064218D
:10225000B0FBF1F000F00F0004432C8106B0BDE8A4
:10226000F08700000038014001468888C0F308006C
:102270007047C1F3080282807047000010B5002447
:10228000142001218140554A430942F8231000BF20
:10229000534A00215348FEF751FC53480078002868
:1022A0004CD14F48C07A502816D100BF06E04C48A8
:1022B0000B30005D4D490855601CC4B24848807A17
:1022C000A042F4DC01204A49087000204649087009
:1022D0001420FFF76EFA7FE04148C07A55281FD1DD
:1022E00000204349087000240BE03D480B30005D9E
:1022F0003E4908553C480078401C3B490870601C2A
:10230000C4B23748807AA042EFDC35494FF6FF72FD
:1023100048681146FEF7EAFA1420FFF74AFA5BE034
:1023200000203349087030490870002211461046D9
:10233000FEF7DCFA1420FFF73CFA4DE02B4800785A
:10234000552849D128480078002845D000240CE0C1
:1023500023480B30015D244802780078401C224B52
:10236000187022488154601CC4B21D48807AA04273
:10237000EEDC1E4840781C49097888420ED10120C5
:102380001B490870002018490870002211461046A9
:10239000FEF7ACFA1420FFF70CFA1DE01348407862
:1023A0001149097888420ADD0D494FF6FF724868E5
:1023B0001146FEF79BFA1420FFF7FBF90CE0002012
:1023C0000B49087008490870002211461046FEF7B4
:1023D0008DFA1420FFF7EDF910BD000080E100E058
:1023E0008400002000640040030000205C00002006
:1023F0000200002000BFFEE7704700000FB4054B4D
:1024000010B503A9044A029800F0DAF810BC5DF890
:1024100014FB0000F12C00084400002002E008C872
:10242000121F08C1002AFAD170477047002001E04E
:1024300001C1121F002AFBD1704700002DE9FF5F88
:1024400082B00021DDE90430020DDDF840B0034325
:1024500018D044F61050A2F2FF32424315141198DE
:1024600001281FD0A5EB0B00401C5FEA000A4FF0CB
:1024700000064E4FDFF83891B046504615D5CAF1E8
:10248000000413E0119801244AA3012801D16FEA46
:102490000B010298119AC0E90031C0E9024206B06E
:1024A000BDE8F09FCBF10000DFE704460021404A81
:1024B000491842EB0450CDE9001012E0E00707D0C4
:1024C00032463B4640464946FDF74EFE8046894629
:1024D00032463B4610461946FDF746FE06460F4675
:1024E0006410002CEAD1DDE90401DDE90023BAF132
:1024F000000F06DAFDF738FE42464B46FDF734FE84
:1025000005E0FDF7A3FE42464B46FDF79FFE04465D
:102510000E460022284BFEF77DF803D84FF0FF301F
:10252000014607E00022254B20463146FDF7B2FF69
:10253000FEF757F8102409E0002C0ADB0A220023DA
:10254000FDF71AFF039B30321A55641E50EA010250
:10255000F2D1641C039AC4F111031444119A012AA4
:1025600003D0012208430DD10AE0084304D0002023
:102570004FF0110B119072E7A3EB0B056D1E0DE0F0
:102580005B4504DD4FF0000205F1010504E003DACC
:102590004FF00002A5F10105002AECD00298119934
:1025A000C0E90231C0E9004579E7000000001440AD
:1025B0000000F03F300000000000F0430000E03F6A
:1025C0002DE9FF4F95B09B468946064600250FE250
:1025D000252877D100242746F84A0121059400E0F8
:1025E000044316F8013F203B01FA03F01042F7D1F3
:1025F00030782A2811D06FF02F033078A0F1300204
:10260000092A16D8059A44F0020402EB820203EB71
:1026100042021044761C0590EFE759F8042B05920E
:10262000002A03DA504244F40054059044F00204B6
:10263000761C30782E2816D116F8010F44F00404C9
:102640002A280DD06FF02F023078A0F13003092B2B
:1026500009D807EB870302EB4303C718761CF3E79F
:1026600059F8047B761C30786C280FD006DC4C2897
:1026700017D068280DD06A2814D104E0742810D02F
:102680007A280FD10DE044F400140AE044F48014D9
:1026900001E044F440147278824202D104F58014BF
:1026A000761C761C307866280BD013DC582877D03F
:1026B00009DC002875D04528F6D04628F4D04728F4
:1026C0001AD19DE118E0632835D0642879D06528B7
:1026D00012D195E1702873D008DC6728F1D0692801
:1026E0006FD06E280DD06F2806D1B5E073282CD09E
:1026F000752875D0782874D05A46179990476D1C64
:1027000075E1C4F30250022809D003280DD0D9F88E
:10271000001004280DD00D6009F1040967E1D9F813
:102720000010EA17C1E90052F6E7D9F800100D8051
:10273000F2E70D70F0E719F8041B8DF80010002087
:102740008DF80100EA46012003E059F804AB4FF090
:10275000FF3061074FF0000102D40DE008F10101E4
:102760008846B9420FDA8045F8DB1AF808100029CC
:10277000F4D108E008F1010188468142FADB1AF839
:1027800008100029F6D105985B46A0EB0807214602
:102790003846179A00F094FA284400EB080507E041
:1027A0004DE029E10DE01AF8010B5A4617999047C0
:1027B000B8F10108F7D25B4621463846179A13E173
:1027C00042E00A220092C4F302524FF0000A022AA9
:1027D00008D059F804CB032A4FEAEC710AD00DE077
:1027E00029E02AE009F1070121F00702F2E802C11D
:1027F000914609E00FFA8CFC4FEAEC71042A03D1F0
:102800004FFA8CFC4FEAEC71002907DA0A460021E6
:10281000DCF1000C61EB02012D2202E0220504D55F
:102820002B228DF80420012203E0E20701D02022B0
:10283000F7E7904659E00A2102E010220DE010214E
:102840004FF0000A00910BE010224FF0000A44F014
:1028500004040827009203E008224FF0000A0092C7
:10286000C4F30252022A05D059F804CB0021032AEE
:1028700008D009E009F1070121F00702F2E802C1DE
:10288000914605E01FFA8CFC042A01D10CF0FF0CE4
:102890004FF00008220728D5702806D0009B83F04F
:1028A000100353EA0A0305D00EE040228DF80420FD
:1028B000012208E05CEA010206D030228DF80420F3
:1028C0008DF8050002229046009B83F0080353EA2E
:1028D0000A030AD15CEA010201D1620705D5302260
:1028E0008DF804204FF001087F1E582804D034A032
:1028F00003900EA802900DE036A0F9E7534660461B
:10290000009AFDF739FD84460398825C0298401EC8
:10291000029002705CEA0100F0D1029806A9081A40
:1029200000F1200A600702D524F4803400E001277A
:10293000574502DDA7EB0A0000E0002000EB0A018A
:10294000009005984144401A0590E00306D45B4688
:102950002146179A059800F0B3F90544002706E0D0
:1029600001A85A46C05D179990476D1C7F1C4745CA
:10297000F6DBE0030CD55B462146179A059800F07C
:102980009FF9054404E030205A46179990476D1C82
:102990000099481E00900029F5DC08E00298029991
:1029A0005A460078491C0291179990476D1CBAF15C
:1029B0000001AAF1010AF1DC65E10000092801002B
:1029C00030313233343536373839616263646566A5
:1029D0000000000030313233343536373839414267
:1029E000434445460000000000F058F90544761CB9
:1029F000307800287FF4ECAD19B02846BDE8F08FA0
:102A0000620700D4062709F1070222F0070CFCE850
:102A10000223E14603F000485FEA080C02D00FF2FF
:102A2000702C0DE05FEA045C02D50FF2682C07E021
:102A30005FEAC47C02D00FF2602C01E0AFF2700CB0
:102A40004FF0FF3823F00043CDF850C065280CD07C
:102A500006DC452809D046281DD047283DD13DE059
:102A6000662818D067287ED138E00021112F01DBBD
:102A7000112000E0781CCDE9000106A90EA8FFF79F
:102A8000DDFCDDE90F010E9A03910021009207F1B0
:102A9000010A04914DE04FF000400097CDE901108C
:102AA00006A90EA8FFF7CAFCDDE90F0203920E9BF0
:102AB00011990022DDF80CA00093049211B9791C41
:102AC00000EB010AB7EB0A0004D4C0F1FF3007F1B4
:102AD000010A0490AAEB0700019044E0012F00DAFC
:102AE00001270021112F01DD112000E03846CDE93A
:102AF000000106A90EA8FFF7A1FCDDE90F010E9A5F
:102B00000391002104910092BA4621070CD4039945
:102B1000514500DA8A46BAF1010F05DD009AAAF1A3
:102B20000101515C302908D0B84202DA10F1040FDB
:102B300006DA0121CDE9011015E0AAF10101E9E76A
:102B4000002805DC049901440491AAEB000102E08D
:102B5000411C514500DD8A460499401A401C0190F1
:102B60004FF000400290200704D40198504501DB4B
:102B7000CDF8048000208DF84F0002980DF14F072A
:102B8000B0F1004F25D02B200E9002984FF0020894
:102B900000280CDA404202902D200E9007E00A2116
:102BA0000298FDF7D3FB3031029007F8011DB8F110
:102BB0000001A8F10108F2DC02980028EFD1791E8B
:102BC0000E980870307800F0200040F0450007F8BB
:102BD000020D12A8C01B00F107081498007800B17C
:102BE000012000EB0A01019801EBE07105984144D6
:102BF000401A401E0590E00306D45B462146179A12
:102C0000059800F05DF805441498007818B15A460C
:102C1000179990476D1CE00324D55B462146179A0F
:102C2000059800F04DF805441CE00498002807DBE7
:102C3000DDE90301884203DD0098405C179901E05B
:102C4000179930205A469047049805F10105401C19
:102C500004900198401E019004D12E205A461799E5
:102C600090476D1CBAF10001AAF1010ADDDC05E014
:102C700017F8010B5A46179990476D1CB8F10001DF
:102C8000A8F10108F4DC5B462146179A0598ABE6EB
:102C90002D0000002B000000200000002DE9F04175
:102CA000044600251E461746880404D405E039462C
:102CB0002020B0476D1C641EF9D52846BDE8F08180
:102CC0002DE9F041044600251E469046C80301D573
:102CD000302700E02027880404D505E04146384627
:102CE000B0476D1C641EF9D52846BDE8F081000090
:102CF00070B504460D46E1B20548FFF7BAFA00BFC9
:102D00000348008800F080000028F9D0204670BDFC
:102D1000003801401FB5FEF727FD4FF4E130FFF703
:102D200029F8FDF732FDFEF7F3FC6420FEF7C2FA46
:102D30004FF400613748FEF7B0FCFEF79BFB36A06E
:102D4000FFF75CFB01223F493F48FEF7C3FE3D48C9
:102D500040783C49097840EA01203C49088008460F
:102D600001883BA0FFF74AFB022238490846008849
:102D7000FDF75CFF6020FEF792FC8246FDF7D5FA76
:102D800080463748026843684046FDF7EDF906463D
:102D90000F460022334B30463946FDF757FA80463E
:102DA00089460022304B30463946FDF74FFA32460D
:102DB0003B468DE803032DA0FFF720FB7020FEF7B4
:102DC0006EFC8246FDF7B1FA8046254802684368EA
:102DD0004046FDF7C9F904460D460022214B204626
:102DE0002946FDF733FA8046894600221E4B2046CD
:102DF0002946FDF72BFA22462B468DE8030323A034
:102E0000FFF7FCFAFFF7F8FA03E0FFF73FF8FEF7E9
:102E100063F8FAE7000C01403D3D3D3D3D3D3D3D41
:102E20003D3D3D3D3D3DB2E2CAD4B3CCD0F2BFAA58
:102E3000CABCA3A13D3D3D3D3D3D3D3D3D3D3D3DEC
:102E40003D3D0A001400002000FC000804000020A2
:102E50004D792049442069732025580A000000005C
:102E60000800002080842E4100408F40566F6C4146
:102E7000474E44203D20254C6675562C20254C6637
:102E80006D562C20254C66560D0A000041445234E4
:102E9000353135203D20254C6675562C20254C6655
:102EA0006D562C20254C66560D0A0000CC2E0008CD
:102EB00000000020480000001C240008142F000817
:102EC00048000020500800002C24000800000000EA
:102ED0000080000000000000D012E33F000000006E
:102EE000000000000000000000A24A0400000000F2
:102EF00000000000010203040607080900000000AA
:102F0000010203040102030406070809020406087B
:042F100000000000BD
:0400000508000131BD
:00000001FF
